{
  "_format": "hh-sol-artifact-1",
  "contractName": "OnboardingCollectible",
  "sourceName": "contracts/OnboardingCollectible.sol",
  "abi": [
    {
      "inputs": [],
      "stateMutability": "nonpayable",
      "type": "constructor"
    },
    {
      "anonymous": false,
      "inputs": [
        {
          "indexed": true,
          "internalType": "address",
          "name": "owner",
          "type": "address"
        },
        {
          "indexed": true,
          "internalType": "address",
          "name": "approved",
          "type": "address"
        },
        {
          "indexed": true,
          "internalType": "uint256",
          "name": "tokenId",
          "type": "uint256"
        }
      ],
      "name": "Approval",
      "type": "event"
    },
    {
      "anonymous": false,
      "inputs": [
        {
          "indexed": true,
          "internalType": "address",
          "name": "owner",
          "type": "address"
        },
        {
          "indexed": true,
          "internalType": "address",
          "name": "operator",
          "type": "address"
        },
        {
          "indexed": false,
          "internalType": "bool",
          "name": "approved",
          "type": "bool"
        }
      ],
      "name": "ApprovalForAll",
      "type": "event"
    },
    {
      "anonymous": false,
      "inputs": [
        {
          "indexed": true,
          "internalType": "address",
          "name": "from",
          "type": "address"
        },
        {
          "indexed": true,
          "internalType": "address",
          "name": "to",
          "type": "address"
        },
        {
          "indexed": true,
          "internalType": "uint256",
          "name": "tokenId",
          "type": "uint256"
        }
      ],
      "name": "Transfer",
      "type": "event"
    },
    {
      "anonymous": false,
      "inputs": [
        {
          "indexed": false,
          "internalType": "address",
          "name": "sender",
          "type": "address"
        },
        {
          "indexed": false,
          "internalType": "uint256",
          "name": "tokenId",
          "type": "uint256"
        }
      ],
      "name": "collectibleMinted",
      "type": "event"
    },
    {
      "inputs": [
        {
          "internalType": "address",
          "name": "to",
          "type": "address"
        },
        {
          "internalType": "uint256",
          "name": "tokenId",
          "type": "uint256"
        }
      ],
      "name": "approve",
      "outputs": [],
      "stateMutability": "nonpayable",
      "type": "function"
    },
    {
      "inputs": [
        {
          "internalType": "address",
          "name": "owner",
          "type": "address"
        }
      ],
      "name": "balanceOf",
      "outputs": [
        {
          "internalType": "uint256",
          "name": "",
          "type": "uint256"
        }
      ],
      "stateMutability": "view",
      "type": "function"
    },
    {
      "inputs": [
        {
          "internalType": "string",
          "name": "name",
          "type": "string"
        }
      ],
      "name": "create",
      "outputs": [],
      "stateMutability": "nonpayable",
      "type": "function"
    },
    {
      "inputs": [
        {
          "internalType": "uint256",
          "name": "tokenId",
          "type": "uint256"
        }
      ],
      "name": "getApproved",
      "outputs": [
        {
          "internalType": "address",
          "name": "",
          "type": "address"
        }
      ],
      "stateMutability": "view",
      "type": "function"
    },
    {
      "inputs": [
        {
          "internalType": "address",
          "name": "owner",
          "type": "address"
        },
        {
          "internalType": "address",
          "name": "operator",
          "type": "address"
        }
      ],
      "name": "isApprovedForAll",
      "outputs": [
        {
          "internalType": "bool",
          "name": "",
          "type": "bool"
        }
      ],
      "stateMutability": "view",
      "type": "function"
    },
    {
      "inputs": [],
      "name": "name",
      "outputs": [
        {
          "internalType": "string",
          "name": "",
          "type": "string"
        }
      ],
      "stateMutability": "view",
      "type": "function"
    },
    {
      "inputs": [
        {
          "internalType": "uint256",
          "name": "tokenId",
          "type": "uint256"
        }
      ],
      "name": "ownerOf",
      "outputs": [
        {
          "internalType": "address",
          "name": "",
          "type": "address"
        }
      ],
      "stateMutability": "view",
      "type": "function"
    },
    {
      "inputs": [
        {
          "internalType": "uint256",
          "name": "tokenId",
          "type": "uint256"
        }
      ],
      "name": "pickRandomColor",
      "outputs": [
        {
          "internalType": "string",
          "name": "",
          "type": "string"
        }
      ],
      "stateMutability": "view",
      "type": "function"
    },
    {
      "inputs": [
        {
          "internalType": "address",
          "name": "from",
          "type": "address"
        },
        {
          "internalType": "address",
          "name": "to",
          "type": "address"
        },
        {
          "internalType": "uint256",
          "name": "tokenId",
          "type": "uint256"
        }
      ],
      "name": "safeTransferFrom",
      "outputs": [],
      "stateMutability": "nonpayable",
      "type": "function"
    },
    {
      "inputs": [
        {
          "internalType": "address",
          "name": "from",
          "type": "address"
        },
        {
          "internalType": "address",
          "name": "to",
          "type": "address"
        },
        {
          "internalType": "uint256",
          "name": "tokenId",
          "type": "uint256"
        },
        {
          "internalType": "bytes",
          "name": "_data",
          "type": "bytes"
        }
      ],
      "name": "safeTransferFrom",
      "outputs": [],
      "stateMutability": "nonpayable",
      "type": "function"
    },
    {
      "inputs": [
        {
          "internalType": "address",
          "name": "operator",
          "type": "address"
        },
        {
          "internalType": "bool",
          "name": "approved",
          "type": "bool"
        }
      ],
      "name": "setApprovalForAll",
      "outputs": [],
      "stateMutability": "nonpayable",
      "type": "function"
    },
    {
      "inputs": [
        {
          "internalType": "bytes4",
          "name": "interfaceId",
          "type": "bytes4"
        }
      ],
      "name": "supportsInterface",
      "outputs": [
        {
          "internalType": "bool",
          "name": "",
          "type": "bool"
        }
      ],
      "stateMutability": "view",
      "type": "function"
    },
    {
      "inputs": [],
      "name": "symbol",
      "outputs": [
        {
          "internalType": "string",
          "name": "",
          "type": "string"
        }
      ],
      "stateMutability": "view",
      "type": "function"
    },
    {
      "inputs": [
        {
          "internalType": "uint256",
          "name": "tokenId",
          "type": "uint256"
        }
      ],
      "name": "tokenURI",
      "outputs": [
        {
          "internalType": "string",
          "name": "",
          "type": "string"
        }
      ],
      "stateMutability": "view",
      "type": "function"
    },
    {
      "inputs": [
        {
          "internalType": "address",
          "name": "from",
          "type": "address"
        },
        {
          "internalType": "address",
          "name": "to",
          "type": "address"
        },
        {
          "internalType": "uint256",
          "name": "tokenId",
          "type": "uint256"
        }
      ],
      "name": "transferFrom",
      "outputs": [],
      "stateMutability": "nonpayable",
      "type": "function"
    }
  ],
  "bytecode": "0x6080604052604051806101200160405280610100815260200162004127610100913960089080519060200190620000389291906200053f565b506040518060600160405280602181526020016200451a60219139600990805190602001906200006a9291906200053f565b506040518060800160405280605481526020016200443160549139600a90805190602001906200009c9291906200053f565b506040518060c00160405280609f815260200162004088609f9139600b9080519060200190620000ce9291906200053f565b506040518060800160405280604381526020016200453b60439139600c9080519060200190620001009291906200053f565b5060405180610100016040528060c481526020016200422760c49139600d9080519060200190620001339291906200053f565b506040518060c00160405280609581526020016200448560959139600e9080519060200190620001659291906200053f565b506040518061018001604052806101468152602001620042eb6101469139600f90805190602001906200019a9291906200053f565b506040518061010001604052806040518060400160405280601181526020017f7267622835322c203137332c203137322900000000000000000000000000000081525081526020016040518060600160405280602281526020016200457e6022913981526020016040518060400160405280601181526020017f726762283139362c2038312c203132392900000000000000000000000000000081525081526020016040518060400160405280601281526020017f726762283233332c203138322c2031363729000000000000000000000000000081525081526020016040518060400160405280601181526020017f7267622835302c203134372c203131342900000000000000000000000000000081525081526020016040518060400160405280601281526020017f726762283136332c203132352c2032323029000000000000000000000000000081525081526020016040518060400160405280601181526020017f7267622834382c203130372c203134372900000000000000000000000000000081525081526020016040518060400160405280601181526020017f726762283130382c2035302c2031373129000000000000000000000000000000815250815250601090600862000373929190620005d0565b503480156200038157600080fd5b506040518060400160405280600881526020017f6e65776672656e7a0000000000000000000000000000000000000000000000008152506040518060400160405280600881526020017f4e45574652454e5a0000000000000000000000000000000000000000000000008152508160009080519060200190620004069291906200053f565b5080600190805190602001906200041f9291906200053f565b5050506200046d6040518060400160405280600781526020017f5761737375702e000000000000000000000000000000000000000000000000008152506200047360201b62000e521760201c565b620007f1565b62000513816040516024016200048a919062000705565b6040516020818303038152906040527f41304fac000000000000000000000000000000000000000000000000000000007bffffffffffffffffffffffffffffffffffffffffffffffffffffffff19166020820180517bffffffffffffffffffffffffffffffffffffffffffffffffffffffff83818316178352505050506200051660201b60201c565b50565b60008151905060006a636f6e736f6c652e6c6f679050602083016000808483855afa5050505050565b8280546200054d906200077b565b90600052602060002090601f016020900481019282620005715760008555620005bd565b82601f106200058c57805160ff1916838001178555620005bd565b82800160010185558215620005bd579182015b82811115620005bc5782518255916020019190600101906200059f565b5b509050620005cc919062000637565b5090565b82805482825590600052602060002090810192821562000624579160200282015b8281111562000623578251829080519060200190620006129291906200053f565b5091602001919060010190620005f1565b5b50905062000633919062000656565b5090565b5b808211156200065257600081600090555060010162000638565b5090565b5b808211156200067a57600081816200067091906200067e565b5060010162000657565b5090565b5080546200068c906200077b565b6000825580601f10620006a05750620006c1565b601f016020900490600052602060002090810190620006c0919062000637565b5b50565b6000620006d18262000729565b620006dd818562000734565b9350620006ef81856020860162000745565b620006fa81620007e0565b840191505092915050565b60006020820190508181036000830152620007218184620006c4565b905092915050565b600081519050919050565b600082825260208201905092915050565b60005b838110156200076557808201518184015260208101905062000748565b8381111562000775576000848401525b50505050565b600060028204905060018216806200079457607f821691505b60208210811415620007ab57620007aa620007b1565b5b50919050565b7f4e487b7100000000000000000000000000000000000000000000000000000000600052602260045260246000fd5b6000601f19601f8301169050919050565b61388780620008016000396000f3fe608060405234801561001057600080fd5b50600436106100f55760003560e01c80636352211e11610097578063b6a46b3b11610066578063b6a46b3b14610296578063b88d4fde146102b2578063c87b56dd146102ce578063e985e9c5146102fe576100f5565b80636352211e146101fc57806370a082311461022c57806395d89b411461025c578063a22cb4651461027a576100f5565b8063095ea7b3116100d3578063095ea7b31461017857806323b872dd1461019457806342842e0e146101b0578063514dc8c6146101cc576100f5565b806301ffc9a7146100fa57806306fdde031461012a578063081812fc14610148575b600080fd5b610114600480360381019061010f919061232e565b61032e565b6040516101219190612ab4565b60405180910390f35b610132610410565b60405161013f9190612acf565b60405180910390f35b610162600480360381019061015d91906123c5565b6104a2565b60405161016f9190612a24565b60405180910390f35b610192600480360381019061018d91906122f2565b610527565b005b6101ae60048036038101906101a991906121ec565b61063f565b005b6101ca60048036038101906101c591906121ec565b61069f565b005b6101e660048036038101906101e191906123c5565b6106bf565b6040516101f39190612acf565b60405180910390f35b610216600480360381019061021191906123c5565b6107dd565b6040516102239190612a24565b60405180910390f35b61024660048036038101906102419190612187565b61088f565b6040516102539190612d68565b60405180910390f35b610264610947565b6040516102719190612acf565b60405180910390f35b610294600480360381019061028f91906122b6565b6109d9565b005b6102b060048036038101906102ab9190612380565b6109ef565b005b6102cc60048036038101906102c7919061223b565b610c0a565b005b6102e860048036038101906102e391906123c5565b610c6c565b6040516102f59190612acf565b60405180910390f35b610318600480360381019061031391906121b0565b610dbe565b6040516103259190612ab4565b60405180910390f35b60007f80ac58cd000000000000000000000000000000000000000000000000000000007bffffffffffffffffffffffffffffffffffffffffffffffffffffffff1916827bffffffffffffffffffffffffffffffffffffffffffffffffffffffff191614806103f957507f5b5e139f000000000000000000000000000000000000000000000000000000007bffffffffffffffffffffffffffffffffffffffffffffffffffffffff1916827bffffffffffffffffffffffffffffffffffffffffffffffffffffffff1916145b80610409575061040882610eeb565b5b9050919050565b60606000805461041f90612ffc565b80601f016020809104026020016040519081016040528092919081815260200182805461044b90612ffc565b80156104985780601f1061046d57610100808354040283529160200191610498565b820191906000526020600020905b81548152906001019060200180831161047b57829003601f168201915b5050505050905090565b60006104ad82610f55565b6104ec576040517f08c379a00000000000000000000000000000000000000000000000000000000081526004016104e390612cc8565b60405180910390fd5b6004600083815260200190815260200160002060009054906101000a900473ffffffffffffffffffffffffffffffffffffffff169050919050565b6000610532826107dd565b90508073ffffffffffffffffffffffffffffffffffffffff168373ffffffffffffffffffffffffffffffffffffffff1614156105a3576040517f08c379a000000000000000000000000000000000000000000000000000000000815260040161059a90612d08565b60405180910390fd5b8073ffffffffffffffffffffffffffffffffffffffff166105c2610fc1565b73ffffffffffffffffffffffffffffffffffffffff1614806105f157506105f0816105eb610fc1565b610dbe565b5b610630576040517f08c379a000000000000000000000000000000000000000000000000000000000815260040161062790612be8565b60405180910390fd5b61063a8383610fc9565b505050565b61065061064a610fc1565b82611082565b61068f576040517f08c379a000000000000000000000000000000000000000000000000000000000815260040161068690612d28565b60405180910390fd5b61069a838383611160565b505050565b6106ba83838360405180602001604052806000815250610c0a565b505050565b606060006106f36106cf846113c7565b6040516020016106df9190612a02565b604051602081830303815290604052611574565b90506010805490508161070691906130a8565b905060108181548110610742577f4e487b7100000000000000000000000000000000000000000000000000000000600052603260045260246000fd5b90600052602060002001805461075790612ffc565b80601f016020809104026020016040519081016040528092919081815260200182805461078390612ffc565b80156107d05780601f106107a5576101008083540402835291602001916107d0565b820191906000526020600020905b8154815290600101906020018083116107b357829003601f168201915b5050505050915050919050565b6000806002600084815260200190815260200160002060009054906101000a900473ffffffffffffffffffffffffffffffffffffffff169050600073ffffffffffffffffffffffffffffffffffffffff168173ffffffffffffffffffffffffffffffffffffffff161415610886576040517f08c379a000000000000000000000000000000000000000000000000000000000815260040161087d90612c48565b60405180910390fd5b80915050919050565b60008073ffffffffffffffffffffffffffffffffffffffff168273ffffffffffffffffffffffffffffffffffffffff161415610900576040517f08c379a00000000000000000000000000000000000000000000000000000000081526004016108f790612c28565b60405180910390fd5b600360008373ffffffffffffffffffffffffffffffffffffffff1673ffffffffffffffffffffffffffffffffffffffff168152602001908152602001600020549050919050565b60606001805461095690612ffc565b80601f016020809104026020016040519081016040528092919081815260200182805461098290612ffc565b80156109cf5780601f106109a4576101008083540402835291602001916109cf565b820191906000526020600020905b8154815290600101906020018083116109b257829003601f168201915b5050505050905090565b6109eb6109e4610fc1565b83836115a7565b5050565b60008282905011610a35576040517f08c379a0000000000000000000000000000000000000000000000000000000008152600401610a2c90612c08565b60405180910390fd5b60118282905010610a7b576040517f08c379a0000000000000000000000000000000000000000000000000000000008152600401610a7290612d48565b60405180910390fd5b6000610a876007611714565b90506000610a9482611722565b90506000610ae685858080601f016020809104026020016040519081016040528093929190818152602001838380828437600081840152601f19601f8201169050808301925050505050505084611771565b905060008282604051602001610afd92919061289e565b6040516020818303038152906040529050610b4d6040518060400160405280600881526020017f66696e616c737667000000000000000000000000000000000000000000000000815250826117bf565b6000610b838787610b5d8561185b565b604051602001610b6f93929190612999565b60405160208183030381529060405261185b565b9050600081604051602001610b9891906129e0565b6040516020818303038152906040529050610bb333876119e5565b610bbd8682611a03565b610bc76007611a77565b7fbf6594c4f8a37bc4290d3a46b168a43cf05064585ee7f3b356cf2a97447d43653387604051610bf8929190612a8b565b60405180910390a15050505050505050565b610c1b610c15610fc1565b83611082565b610c5a576040517f08c379a0000000000000000000000000000000000000000000000000000000008152600401610c5190612d28565b60405180910390fd5b610c6684848484611a8d565b50505050565b6060610c7782610f55565b610cb6576040517f08c379a0000000000000000000000000000000000000000000000000000000008152600401610cad90612ca8565b60405180910390fd5b6000600660008481526020019081526020016000208054610cd690612ffc565b80601f0160208091040260200160405190810160405280929190818152602001828054610d0290612ffc565b8015610d4f5780601f10610d2457610100808354040283529160200191610d4f565b820191906000526020600020905b815481529060010190602001808311610d3257829003601f168201915b505050505090506000610d60611ae9565b9050600081511415610d76578192505050610db9565b600082511115610dab578082604051602001610d9392919061289e565b60405160208183030381529060405292505050610db9565b610db484611b00565b925050505b919050565b6000600560008473ffffffffffffffffffffffffffffffffffffffff1673ffffffffffffffffffffffffffffffffffffffff16815260200190815260200160002060008373ffffffffffffffffffffffffffffffffffffffff1673ffffffffffffffffffffffffffffffffffffffff16815260200190815260200160002060009054906101000a900460ff16905092915050565b610ee881604051602401610e669190612acf565b6040516020818303038152906040527f41304fac000000000000000000000000000000000000000000000000000000007bffffffffffffffffffffffffffffffffffffffffffffffffffffffff19166020820180517bffffffffffffffffffffffffffffffffffffffffffffffffffffffff8381831617835250505050611ba7565b50565b60007f01ffc9a7000000000000000000000000000000000000000000000000000000007bffffffffffffffffffffffffffffffffffffffffffffffffffffffff1916827bffffffffffffffffffffffffffffffffffffffffffffffffffffffff1916149050919050565b60008073ffffffffffffffffffffffffffffffffffffffff166002600084815260200190815260200160002060009054906101000a900473ffffffffffffffffffffffffffffffffffffffff1673ffffffffffffffffffffffffffffffffffffffff1614159050919050565b600033905090565b816004600083815260200190815260200160002060006101000a81548173ffffffffffffffffffffffffffffffffffffffff021916908373ffffffffffffffffffffffffffffffffffffffff160217905550808273ffffffffffffffffffffffffffffffffffffffff1661103c836107dd565b73ffffffffffffffffffffffffffffffffffffffff167f8c5be1e5ebec7d5bd14f71427d1e84f3dd0314c0f7b2291e5b200ac8c7c3b92560405160405180910390a45050565b600061108d82610f55565b6110cc576040517f08c379a00000000000000000000000000000000000000000000000000000000081526004016110c390612bc8565b60405180910390fd5b60006110d7836107dd565b90508073ffffffffffffffffffffffffffffffffffffffff168473ffffffffffffffffffffffffffffffffffffffff16148061114657508373ffffffffffffffffffffffffffffffffffffffff1661112e846104a2565b73ffffffffffffffffffffffffffffffffffffffff16145b8061115757506111568185610dbe565b5b91505092915050565b8273ffffffffffffffffffffffffffffffffffffffff16611180826107dd565b73ffffffffffffffffffffffffffffffffffffffff16146111d6576040517f08c379a00000000000000000000000000000000000000000000000000000000081526004016111cd90612b48565b60405180910390fd5b600073ffffffffffffffffffffffffffffffffffffffff168273ffffffffffffffffffffffffffffffffffffffff161415611246576040517f08c379a000000000000000000000000000000000000000000000000000000000815260040161123d90612b88565b60405180910390fd5b611251838383611bd0565b61125c600082610fc9565b6001600360008573ffffffffffffffffffffffffffffffffffffffff1673ffffffffffffffffffffffffffffffffffffffff16815260200190815260200160002060008282546112ac9190612f12565b925050819055506001600360008473ffffffffffffffffffffffffffffffffffffffff1673ffffffffffffffffffffffffffffffffffffffff16815260200190815260200160002060008282546113039190612e31565b92505081905550816002600083815260200190815260200160002060006101000a81548173ffffffffffffffffffffffffffffffffffffffff021916908373ffffffffffffffffffffffffffffffffffffffff160217905550808273ffffffffffffffffffffffffffffffffffffffff168473ffffffffffffffffffffffffffffffffffffffff167fddf252ad1be2c89b69c2b068fc378daa952ba7f163c4a11628f55a4df523b3ef60405160405180910390a46113c2838383611bd5565b505050565b6060600082141561140f576040518060400160405280600181526020017f3000000000000000000000000000000000000000000000000000000000000000815250905061156f565b600082905060005b6000821461144157808061142a9061305f565b915050600a8261143a9190612e87565b9150611417565b60008167ffffffffffffffff811115611483577f4e487b7100000000000000000000000000000000000000000000000000000000600052604160045260246000fd5b6040519080825280601f01601f1916602001820160405280156114b55781602001600182028036833780820191505090505b5090505b60008514611568576001826114ce9190612f12565b9150600a856114dd91906130a8565b60306114e99190612e31565b60f81b818381518110611525577f4e487b7100000000000000000000000000000000000000000000000000000000600052603260045260246000fd5b60200101907effffffffffffffffffffffffffffffffffffffffffffffffffffffffffffff1916908160001a905350600a856115619190612e87565b94506114b9565b8093505050505b919050565b6000816040516020016115879190612887565b6040516020818303038152906040528051906020012060001c9050919050565b8173ffffffffffffffffffffffffffffffffffffffff168373ffffffffffffffffffffffffffffffffffffffff161415611616576040517f08c379a000000000000000000000000000000000000000000000000000000000815260040161160d90612ba8565b60405180910390fd5b80600560008573ffffffffffffffffffffffffffffffffffffffff1673ffffffffffffffffffffffffffffffffffffffff16815260200190815260200160002060008473ffffffffffffffffffffffffffffffffffffffff1673ffffffffffffffffffffffffffffffffffffffff16815260200190815260200160002060006101000a81548160ff0219169083151502179055508173ffffffffffffffffffffffffffffffffffffffff168373ffffffffffffffffffffffffffffffffffffffff167f17307eab39ab6107e8899845ad3d59bd9653f200f220920489ca2b5937696c31836040516117079190612ab4565b60405180910390a3505050565b600081600001549050919050565b6060600061172f836106bf565b90506000600882600984600a86600b88604051602001611756989796959493929190612927565b60405160208183030381529060405290508092505050919050565b6060600061177e836106bf565b90506000600c82600d84600e89600f6040516020016117a397969594939291906128c2565b6040516020818303038152906040529050809250505092915050565b61185782826040516024016117d5929190612af1565b6040516020818303038152906040527f4b5c4277000000000000000000000000000000000000000000000000000000007bffffffffffffffffffffffffffffffffffffffffffffffffffffffff19166020820180517bffffffffffffffffffffffffffffffffffffffffffffffffffffffff8381831617835250505050611ba7565b5050565b606060008251141561187e576040518060200160405280600081525090506119e0565b600060405180606001604052806040815260200161381260409139905060006003600285516118ad9190612e31565b6118b79190612e87565b60046118c39190612eb8565b67ffffffffffffffff811115611902577f4e487b7100000000000000000000000000000000000000000000000000000000600052604160045260246000fd5b6040519080825280601f01601f1916602001820160405280156119345781602001600182028036833780820191505090505b509050600182016020820185865187015b808210156119a0576003820191508151603f8160121c168501518453600184019350603f81600c1c168501518453600184019350603f8160061c168501518453600184019350603f8116850151845360018401935050611945565b50506003865106600181146119bc57600281146119cf576119d7565b603d6001830353603d60028303536119d7565b603d60018303535b50505080925050505b919050565b6119ff828260405180602001604052806000815250611bda565b5050565b611a0c82610f55565b611a4b576040517f08c379a0000000000000000000000000000000000000000000000000000000008152600401611a4290612c68565b60405180910390fd5b80600660008481526020019081526020016000209080519060200190611a72929190611fc9565b505050565b6001816000016000828254019250508190555050565b611a98848484611160565b611aa484848484611c35565b611ae3576040517f08c379a0000000000000000000000000000000000000000000000000000000008152600401611ada90612b28565b60405180910390fd5b50505050565b606060405180602001604052806000815250905090565b6060611b0b82610f55565b611b4a576040517f08c379a0000000000000000000000000000000000000000000000000000000008152600401611b4190612ce8565b60405180910390fd5b6000611b54611ae9565b90506000815111611b745760405180602001604052806000815250611b9f565b80611b7e846113c7565b604051602001611b8f92919061289e565b6040516020818303038152906040525b915050919050565b60008151905060006a636f6e736f6c652e6c6f679050602083016000808483855afa5050505050565b505050565b505050565b611be48383611dcc565b611bf16000848484611c35565b611c30576040517f08c379a0000000000000000000000000000000000000000000000000000000008152600401611c2790612b28565b60405180910390fd5b505050565b6000611c568473ffffffffffffffffffffffffffffffffffffffff16611fa6565b15611dbf578373ffffffffffffffffffffffffffffffffffffffff1663150b7a02611c7f610fc1565b8786866040518563ffffffff1660e01b8152600401611ca19493929190612a3f565b602060405180830381600087803b158015611cbb57600080fd5b505af1925050508015611cec57506040513d601f19601f82011682018060405250810190611ce99190612357565b60015b611d6f573d8060008114611d1c576040519150601f19603f3d011682016040523d82523d6000602084013e611d21565b606091505b50600081511415611d67576040517f08c379a0000000000000000000000000000000000000000000000000000000008152600401611d5e90612b28565b60405180910390fd5b805181602001fd5b63150b7a0260e01b7bffffffffffffffffffffffffffffffffffffffffffffffffffffffff1916817bffffffffffffffffffffffffffffffffffffffffffffffffffffffff191614915050611dc4565b600190505b949350505050565b600073ffffffffffffffffffffffffffffffffffffffff168273ffffffffffffffffffffffffffffffffffffffff161415611e3c576040517f08c379a0000000000000000000000000000000000000000000000000000000008152600401611e3390612c88565b60405180910390fd5b611e4581610f55565b15611e85576040517f08c379a0000000000000000000000000000000000000000000000000000000008152600401611e7c90612b68565b60405180910390fd5b611e9160008383611bd0565b6001600360008473ffffffffffffffffffffffffffffffffffffffff1673ffffffffffffffffffffffffffffffffffffffff1681526020019081526020016000206000828254611ee19190612e31565b92505081905550816002600083815260200190815260200160002060006101000a81548173ffffffffffffffffffffffffffffffffffffffff021916908373ffffffffffffffffffffffffffffffffffffffff160217905550808273ffffffffffffffffffffffffffffffffffffffff16600073ffffffffffffffffffffffffffffffffffffffff167fddf252ad1be2c89b69c2b068fc378daa952ba7f163c4a11628f55a4df523b3ef60405160405180910390a4611fa260008383611bd5565b5050565b6000808273ffffffffffffffffffffffffffffffffffffffff163b119050919050565b828054611fd590612ffc565b90600052602060002090601f016020900481019282611ff7576000855561203e565b82601f1061201057805160ff191683800117855561203e565b8280016001018555821561203e579182015b8281111561203d578251825591602001919060010190612022565b5b50905061204b919061204f565b5090565b5b80821115612068576000816000905550600101612050565b5090565b600061207f61207a84612da8565b612d83565b90508281526020810184848401111561209757600080fd5b6120a2848285612fba565b509392505050565b6000813590506120b9816137b5565b92915050565b6000813590506120ce816137cc565b92915050565b6000813590506120e3816137e3565b92915050565b6000815190506120f8816137e3565b92915050565b600082601f83011261210f57600080fd5b813561211f84826020860161206c565b91505092915050565b60008083601f84011261213a57600080fd5b8235905067ffffffffffffffff81111561215357600080fd5b60208301915083600182028301111561216b57600080fd5b9250929050565b600081359050612181816137fa565b92915050565b60006020828403121561219957600080fd5b60006121a7848285016120aa565b91505092915050565b600080604083850312156121c357600080fd5b60006121d1858286016120aa565b92505060206121e2858286016120aa565b9150509250929050565b60008060006060848603121561220157600080fd5b600061220f868287016120aa565b9350506020612220868287016120aa565b925050604061223186828701612172565b9150509250925092565b6000806000806080858703121561225157600080fd5b600061225f878288016120aa565b9450506020612270878288016120aa565b935050604061228187828801612172565b925050606085013567ffffffffffffffff81111561229e57600080fd5b6122aa878288016120fe565b91505092959194509250565b600080604083850312156122c957600080fd5b60006122d7858286016120aa565b92505060206122e8858286016120bf565b9150509250929050565b6000806040838503121561230557600080fd5b6000612313858286016120aa565b925050602061232485828601612172565b9150509250929050565b60006020828403121561234057600080fd5b600061234e848285016120d4565b91505092915050565b60006020828403121561236957600080fd5b6000612377848285016120e9565b91505092915050565b6000806020838503121561239357600080fd5b600083013567ffffffffffffffff8111156123ad57600080fd5b6123b985828601612128565b92509250509250929050565b6000602082840312156123d757600080fd5b60006123e584828501612172565b91505092915050565b6123f781612f46565b82525050565b61240681612f58565b82525050565b600061241782612dee565b6124218185612e04565b9350612431818560208601612fc9565b61243a81613195565b840191505092915050565b60006124518385612e26565b935061245e838584612fba565b82840190509392505050565b600061247582612df9565b61247f8185612e15565b935061248f818560208601612fc9565b61249881613195565b840191505092915050565b60006124ae82612df9565b6124b88185612e26565b93506124c8818560208601612fc9565b80840191505092915050565b600081546124e181612ffc565b6124eb8186612e26565b9450600182166000811461250657600181146125175761254a565b60ff1983168652818601935061254a565b61252085612dd9565b60005b8381101561254257815481890152600182019150602081019050612523565b838801955050505b50505092915050565b6000612560603283612e15565b915061256b826131a6565b604082019050919050565b6000612583602583612e15565b915061258e826131f5565b604082019050919050565b60006125a6601c83612e15565b91506125b182613244565b602082019050919050565b60006125c9602483612e15565b91506125d48261326d565b604082019050919050565b60006125ec601983612e15565b91506125f7826132bc565b602082019050919050565b600061260f602c83612e15565b915061261a826132e5565b604082019050919050565b6000612632603883612e15565b915061263d82613334565b604082019050919050565b6000612655600d83612e15565b915061266082613383565b602082019050919050565b6000612678602a83612e15565b9150612683826133ac565b604082019050919050565b600061269b602983612e15565b91506126a6826133fb565b604082019050919050565b60006126be602e83612e15565b91506126c98261344a565b604082019050919050565b60006126e1600283612e26565b91506126ec82613499565b600282019050919050565b6000612704602083612e15565b915061270f826134c2565b602082019050919050565b6000612727603183612e15565b9150612732826134eb565b604082019050919050565b600061274a602c83612e15565b91506127558261353a565b604082019050919050565b600061276d602f83612e15565b915061277882613589565b604082019050919050565b6000612790600a83612e26565b915061279b826135d8565b600a82019050919050565b60006127b3602183612e15565b91506127be82613601565b604082019050919050565b60006127d6601d83612e26565b91506127e182613650565b601d82019050919050565b60006127f9603183612e15565b915061280482613679565b604082019050919050565b600061281c606683612e26565b9150612827826136c8565b606682019050919050565b600061283f600583612e26565b915061284a82613763565b600582019050919050565b6000612862600e83612e15565b915061286d8261378c565b602082019050919050565b61288181612fb0565b82525050565b600061289382846124a3565b915081905092915050565b60006128aa82856124a3565b91506128b682846124a3565b91508190509392505050565b60006128ce828a6124d4565b91506128da82896124a3565b91506128e682886124d4565b91506128f282876124a3565b91506128fe82866124d4565b915061290a82856124a3565b915061291682846124d4565b915081905098975050505050505050565b6000612933828b6124d4565b915061293f828a6124a3565b915061294b82896124d4565b915061295782886124a3565b915061296382876124d4565b915061296f82866124a3565b915061297b82856124d4565b915061298782846124a3565b91508190509998505050505050505050565b60006129a482612783565b91506129b1828587612445565b91506129bc8261280f565b91506129c882846124a3565b91506129d3826126d4565b9150819050949350505050565b60006129eb826127c9565b91506129f782846124a3565b915081905092915050565b6000612a0d82612832565b9150612a1982846124a3565b915081905092915050565b6000602082019050612a3960008301846123ee565b92915050565b6000608082019050612a5460008301876123ee565b612a6160208301866123ee565b612a6e6040830185612878565b8181036060830152612a80818461240c565b905095945050505050565b6000604082019050612aa060008301856123ee565b612aad6020830184612878565b9392505050565b6000602082019050612ac960008301846123fd565b92915050565b60006020820190508181036000830152612ae9818461246a565b905092915050565b60006040820190508181036000830152612b0b818561246a565b90508181036020830152612b1f818461246a565b90509392505050565b60006020820190508181036000830152612b4181612553565b9050919050565b60006020820190508181036000830152612b6181612576565b9050919050565b60006020820190508181036000830152612b8181612599565b9050919050565b60006020820190508181036000830152612ba1816125bc565b9050919050565b60006020820190508181036000830152612bc1816125df565b9050919050565b60006020820190508181036000830152612be181612602565b9050919050565b60006020820190508181036000830152612c0181612625565b9050919050565b60006020820190508181036000830152612c2181612648565b9050919050565b60006020820190508181036000830152612c418161266b565b9050919050565b60006020820190508181036000830152612c618161268e565b9050919050565b60006020820190508181036000830152612c81816126b1565b9050919050565b60006020820190508181036000830152612ca1816126f7565b9050919050565b60006020820190508181036000830152612cc18161271a565b9050919050565b60006020820190508181036000830152612ce18161273d565b9050919050565b60006020820190508181036000830152612d0181612760565b9050919050565b60006020820190508181036000830152612d21816127a6565b9050919050565b60006020820190508181036000830152612d41816127ec565b9050919050565b60006020820190508181036000830152612d6181612855565b9050919050565b6000602082019050612d7d6000830184612878565b92915050565b6000612d8d612d9e565b9050612d99828261302e565b919050565b6000604051905090565b600067ffffffffffffffff821115612dc357612dc2613166565b5b612dcc82613195565b9050602081019050919050565b60008190508160005260206000209050919050565b600081519050919050565b600081519050919050565b600082825260208201905092915050565b600082825260208201905092915050565b600081905092915050565b6000612e3c82612fb0565b9150612e4783612fb0565b9250827fffffffffffffffffffffffffffffffffffffffffffffffffffffffffffffffff03821115612e7c57612e7b6130d9565b5b828201905092915050565b6000612e9282612fb0565b9150612e9d83612fb0565b925082612ead57612eac613108565b5b828204905092915050565b6000612ec382612fb0565b9150612ece83612fb0565b9250817fffffffffffffffffffffffffffffffffffffffffffffffffffffffffffffffff0483118215151615612f0757612f066130d9565b5b828202905092915050565b6000612f1d82612fb0565b9150612f2883612fb0565b925082821015612f3b57612f3a6130d9565b5b828203905092915050565b6000612f5182612f90565b9050919050565b60008115159050919050565b60007fffffffff0000000000000000000000000000000000000000000000000000000082169050919050565b600073ffffffffffffffffffffffffffffffffffffffff82169050919050565b6000819050919050565b82818337600083830152505050565b60005b83811015612fe7578082015181840152602081019050612fcc565b83811115612ff6576000848401525b50505050565b6000600282049050600182168061301457607f821691505b6020821081141561302857613027613137565b5b50919050565b61303782613195565b810181811067ffffffffffffffff8211171561305657613055613166565b5b80604052505050565b600061306a82612fb0565b91507fffffffffffffffffffffffffffffffffffffffffffffffffffffffffffffffff82141561309d5761309c6130d9565b5b600182019050919050565b60006130b382612fb0565b91506130be83612fb0565b9250826130ce576130cd613108565b5b828206905092915050565b7f4e487b7100000000000000000000000000000000000000000000000000000000600052601160045260246000fd5b7f4e487b7100000000000000000000000000000000000000000000000000000000600052601260045260246000fd5b7f4e487b7100000000000000000000000000000000000000000000000000000000600052602260045260246000fd5b7f4e487b7100000000000000000000000000000000000000000000000000000000600052604160045260246000fd5b6000601f19601f8301169050919050565b7f4552433732313a207472616e7366657220746f206e6f6e20455243373231526560008201527f63656976657220696d706c656d656e7465720000000000000000000000000000602082015250565b7f4552433732313a207472616e736665722066726f6d20696e636f72726563742060008201527f6f776e6572000000000000000000000000000000000000000000000000000000602082015250565b7f4552433732313a20746f6b656e20616c7265616479206d696e74656400000000600082015250565b7f4552433732313a207472616e7366657220746f20746865207a65726f2061646460008201527f7265737300000000000000000000000000000000000000000000000000000000602082015250565b7f4552433732313a20617070726f766520746f2063616c6c657200000000000000600082015250565b7f4552433732313a206f70657261746f7220717565727920666f72206e6f6e657860008201527f697374656e7420746f6b656e0000000000000000000000000000000000000000602082015250565b7f4552433732313a20617070726f76652063616c6c6572206973206e6f74206f7760008201527f6e6572206e6f7220617070726f76656420666f7220616c6c0000000000000000602082015250565b7f456d70747920737472696e672e00000000000000000000000000000000000000600082015250565b7f4552433732313a2062616c616e636520717565727920666f7220746865207a6560008201527f726f206164647265737300000000000000000000000000000000000000000000602082015250565b7f4552433732313a206f776e657220717565727920666f72206e6f6e657869737460008201527f656e7420746f6b656e0000000000000000000000000000000000000000000000602082015250565b7f45524337323155524953746f726167653a2055524920736574206f66206e6f6e60008201527f6578697374656e7420746f6b656e000000000000000000000000000000000000602082015250565b7f227d000000000000000000000000000000000000000000000000000000000000600082015250565b7f4552433732313a206d696e7420746f20746865207a65726f2061646472657373600082015250565b7f45524337323155524953746f726167653a2055524920717565727920666f722060008201527f6e6f6e6578697374656e7420746f6b656e000000000000000000000000000000602082015250565b7f4552433732313a20617070726f76656420717565727920666f72206e6f6e657860008201527f697374656e7420746f6b656e0000000000000000000000000000000000000000602082015250565b7f4552433732314d657461646174613a2055524920717565727920666f72206e6f60008201527f6e6578697374656e7420746f6b656e0000000000000000000000000000000000602082015250565b7f7b226e616d65223a202200000000000000000000000000000000000000000000600082015250565b7f4552433732313a20617070726f76616c20746f2063757272656e74206f776e6560008201527f7200000000000000000000000000000000000000000000000000000000000000602082015250565b7f646174613a6170706c69636174696f6e2f6a736f6e3b6261736536342c000000600082015250565b7f4552433732313a207472616e736665722063616c6c6572206973206e6f74206f60008201527f776e6572206e6f7220617070726f766564000000000000000000000000000000602082015250565b7f222c20226465736372697074696f6e223a2022596f757220636f6c6c6563746960008201527f626c6520746f20656e7465722074686520776f726c64206f6620776562332e2260208201527f2c2022696d616765223a2022646174613a696d6167652f7376672b786d6c3b6260408201527f61736536342c0000000000000000000000000000000000000000000000000000606082015250565b7f434f4c4f52000000000000000000000000000000000000000000000000000000600082015250565b7f4e616d6520746f6f206c6f6e672e000000000000000000000000000000000000600082015250565b6137be81612f46565b81146137c957600080fd5b50565b6137d581612f58565b81146137e057600080fd5b50565b6137ec81612f64565b81146137f757600080fd5b50565b61380381612fb0565b811461380e57600080fd5b5056fe4142434445464748494a4b4c4d4e4f505152535455565758595a6162636465666768696a6b6c6d6e6f707172737475767778797a303132333435363738392b2fa26469706673582212205b80d96555b62f514e8a068a884ef3446fdcd953ec20b147e7b89562a319a32264736f6c634300080100332720643d274d3635203338683576313037682d357a6d3132382030683576313037682d357a6d31302032683576313033682d357a4d3535203430683576313033682d357a6d3135382d3130683576313132682d357a4d3435203330683576313232682d357a6d3135332d3168357638682d357a4d363020323968357638682d357a6d31343820313168357636682d357a272f3e3c706174682066696c6c3d273c7376672077696474683d2732363227206865696768743d27313833272076696577426f783d273020302032363220313833272066696c6c3d276e6f6e652720786d6c6e733d27687474703a2f2f7777772e77332e6f72672f323030302f737667273e3c706174682066696c6c3d27233030302720643d274d302030683236327631383348307a272f3e3c706174682066696c6c2d72756c653d276576656e6f64642720636c69702d72756c653d276576656e6f64642720643d274d34342032346837763568313631762d3568377638682d367631323068367638682d37762d354835317635682d37762d386835563332682d35762d385a272066696c6c3d272720643d274d323233203230763135682d355632307a4d3435203230763135682d355632307a6d31352031323768357636682d357a6d313338203068357636682d357a6d31302d3968357635682d357a6d2d313538203068313076354835307a6d31363320326835763133682d357a6d3520376835763136682d357a6d2d313020313168357635682d357a6d35203068357635682d357a4d3430203134376835763135682d357a6d313020313068357635682d357a272f3e3c706174682066696c6c3d273c2f746578743e3c7061746820643d274d3132362e373520363768372e31323576312e31383868312e31383776342e3735682d312e31383776312e313837483133312e3576352e39333868322e33373576322e333734483133312e3576312e31383868322e333735563836682d342e37355637342e313235682d322e333735762d312e313838682d312e313838762d342e373568312e3138385636375a272066696c6c3d2723666666272f3e3c7061746820643d274d3132372e3933382036392e33373568342e373576322e333735682d342e3735762d322e3337355a272066696c6c3d2723313134343442272f3e3c706174682066696c6c3d27236666662720643d274d353320333368347634682d347a6d302031313368347634682d347a4d32303620333368347634682d347a6d302031313368347634682d347a272f3e3c2f7376673e2720643d274d35302032356831363376354835307a6d30203132386831363376354835307a4d36302033356831343376354836307a6d30203130386831343376354836307a272f3e3c706174682066696c6c3d272720643d274d34342031353768377635682d377a272f3e3c7465787420783d273530252720793d273630252720646f6d696e616e742d626173656c696e653d276d6964646c652720746578742d616e63686f723d276d6964646c6527207374796c653d2766696c6c3a236666663b666f6e742d66616d696c793a73616e732d73657269663b666f6e742d73697a653a31327078273e272066696c6c2d6f7061636974793d272e35272f3e3c706174682066696c6c3d272720643d274d343920343068313176364834397a6d3135392d32306831357635682d31357a4d343020323068313576354834307a272f3e3c706174682066696c6c3d277267622834362c2037382c2031373129726762283232312c203132352c2032303529",
  "linkReferences": {},
  "deployedLinkReferences": {}
}