{
  "_format": "hh-sol-artifact-1",
  "contractName": "OnboardingCollectible",
  "sourceName": "contracts/OnboardingCollectible.sol",
  "abi": [
    {
      "inputs": [],
      "stateMutability": "nonpayable",
      "type": "constructor"
    },
    {
      "anonymous": false,
      "inputs": [
        {
          "indexed": true,
          "internalType": "address",
          "name": "owner",
          "type": "address"
        },
        {
          "indexed": true,
          "internalType": "address",
          "name": "approved",
          "type": "address"
        },
        {
          "indexed": true,
          "internalType": "uint256",
          "name": "tokenId",
          "type": "uint256"
        }
      ],
      "name": "Approval",
      "type": "event"
    },
    {
      "anonymous": false,
      "inputs": [
        {
          "indexed": true,
          "internalType": "address",
          "name": "owner",
          "type": "address"
        },
        {
          "indexed": true,
          "internalType": "address",
          "name": "operator",
          "type": "address"
        },
        {
          "indexed": false,
          "internalType": "bool",
          "name": "approved",
          "type": "bool"
        }
      ],
      "name": "ApprovalForAll",
      "type": "event"
    },
    {
      "anonymous": false,
      "inputs": [
        {
          "indexed": true,
          "internalType": "address",
          "name": "from",
          "type": "address"
        },
        {
          "indexed": true,
          "internalType": "address",
          "name": "to",
          "type": "address"
        },
        {
          "indexed": true,
          "internalType": "uint256",
          "name": "tokenId",
          "type": "uint256"
        }
      ],
      "name": "Transfer",
      "type": "event"
    },
    {
      "anonymous": false,
      "inputs": [
        {
          "indexed": false,
          "internalType": "address",
          "name": "sender",
          "type": "address"
        },
        {
          "indexed": false,
          "internalType": "uint256",
          "name": "tokenId",
          "type": "uint256"
        }
      ],
      "name": "collectibleMinted",
      "type": "event"
    },
    {
      "inputs": [
        {
          "internalType": "address",
          "name": "to",
          "type": "address"
        },
        {
          "internalType": "uint256",
          "name": "tokenId",
          "type": "uint256"
        }
      ],
      "name": "approve",
      "outputs": [],
      "stateMutability": "nonpayable",
      "type": "function"
    },
    {
      "inputs": [
        {
          "internalType": "address",
          "name": "owner",
          "type": "address"
        }
      ],
      "name": "balanceOf",
      "outputs": [
        {
          "internalType": "uint256",
          "name": "",
          "type": "uint256"
        }
      ],
      "stateMutability": "view",
      "type": "function"
    },
    {
      "inputs": [
        {
          "internalType": "string",
          "name": "name",
          "type": "string"
        }
      ],
      "name": "create",
      "outputs": [],
      "stateMutability": "nonpayable",
      "type": "function"
    },
    {
      "inputs": [
        {
          "internalType": "uint256",
          "name": "tokenId",
          "type": "uint256"
        }
      ],
      "name": "getApproved",
      "outputs": [
        {
          "internalType": "address",
          "name": "",
          "type": "address"
        }
      ],
      "stateMutability": "view",
      "type": "function"
    },
    {
      "inputs": [
        {
          "internalType": "address",
          "name": "owner",
          "type": "address"
        },
        {
          "internalType": "address",
          "name": "operator",
          "type": "address"
        }
      ],
      "name": "isApprovedForAll",
      "outputs": [
        {
          "internalType": "bool",
          "name": "",
          "type": "bool"
        }
      ],
      "stateMutability": "view",
      "type": "function"
    },
    {
      "inputs": [],
      "name": "name",
      "outputs": [
        {
          "internalType": "string",
          "name": "",
          "type": "string"
        }
      ],
      "stateMutability": "view",
      "type": "function"
    },
    {
      "inputs": [
        {
          "internalType": "uint256",
          "name": "tokenId",
          "type": "uint256"
        }
      ],
      "name": "ownerOf",
      "outputs": [
        {
          "internalType": "address",
          "name": "",
          "type": "address"
        }
      ],
      "stateMutability": "view",
      "type": "function"
    },
    {
      "inputs": [
        {
          "internalType": "uint256",
          "name": "tokenId",
          "type": "uint256"
        }
      ],
      "name": "pickRandomColor",
      "outputs": [
        {
          "internalType": "string",
          "name": "",
          "type": "string"
        }
      ],
      "stateMutability": "view",
      "type": "function"
    },
    {
      "inputs": [
        {
          "internalType": "address",
          "name": "from",
          "type": "address"
        },
        {
          "internalType": "address",
          "name": "to",
          "type": "address"
        },
        {
          "internalType": "uint256",
          "name": "tokenId",
          "type": "uint256"
        }
      ],
      "name": "safeTransferFrom",
      "outputs": [],
      "stateMutability": "nonpayable",
      "type": "function"
    },
    {
      "inputs": [
        {
          "internalType": "address",
          "name": "from",
          "type": "address"
        },
        {
          "internalType": "address",
          "name": "to",
          "type": "address"
        },
        {
          "internalType": "uint256",
          "name": "tokenId",
          "type": "uint256"
        },
        {
          "internalType": "bytes",
          "name": "_data",
          "type": "bytes"
        }
      ],
      "name": "safeTransferFrom",
      "outputs": [],
      "stateMutability": "nonpayable",
      "type": "function"
    },
    {
      "inputs": [
        {
          "internalType": "address",
          "name": "operator",
          "type": "address"
        },
        {
          "internalType": "bool",
          "name": "approved",
          "type": "bool"
        }
      ],
      "name": "setApprovalForAll",
      "outputs": [],
      "stateMutability": "nonpayable",
      "type": "function"
    },
    {
      "inputs": [
        {
          "internalType": "bytes4",
          "name": "interfaceId",
          "type": "bytes4"
        }
      ],
      "name": "supportsInterface",
      "outputs": [
        {
          "internalType": "bool",
          "name": "",
          "type": "bool"
        }
      ],
      "stateMutability": "view",
      "type": "function"
    },
    {
      "inputs": [],
      "name": "symbol",
      "outputs": [
        {
          "internalType": "string",
          "name": "",
          "type": "string"
        }
      ],
      "stateMutability": "view",
      "type": "function"
    },
    {
      "inputs": [
        {
          "internalType": "uint256",
          "name": "tokenId",
          "type": "uint256"
        }
      ],
      "name": "tokenURI",
      "outputs": [
        {
          "internalType": "string",
          "name": "",
          "type": "string"
        }
      ],
      "stateMutability": "view",
      "type": "function"
    },
    {
      "inputs": [
        {
          "internalType": "address",
          "name": "from",
          "type": "address"
        },
        {
          "internalType": "address",
          "name": "to",
          "type": "address"
        },
        {
          "internalType": "uint256",
          "name": "tokenId",
          "type": "uint256"
        }
      ],
      "name": "transferFrom",
      "outputs": [],
      "stateMutability": "nonpayable",
      "type": "function"
    }
  ],
  "bytecode": "0x608060405260405180610100016040528060d3815260200162003e3060d39139600890805190602001906200003692919062000377565b5060405180608001604052806056815260200162003f0360569139600990805190602001906200006892919062000377565b506040518060a001604052806040518060400160405280600381526020017f726564000000000000000000000000000000000000000000000000000000000081525081526020016040518060400160405280600581526020017f626c61636b00000000000000000000000000000000000000000000000000000081525081526020016040518060400160405280600681526020017f79656c6c6f77000000000000000000000000000000000000000000000000000081525081526020016040518060400160405280600481526020017f626c75650000000000000000000000000000000000000000000000000000000081525081526020016040518060400160405280600581526020017f677265656e000000000000000000000000000000000000000000000000000000815250815250600a906005620001ab92919062000408565b50348015620001b957600080fd5b506040518060400160405280600b81526020017f77656233207061737365730000000000000000000000000000000000000000008152506040518060400160405280600381526020017f474d21000000000000000000000000000000000000000000000000000000000081525081600090805190602001906200023e92919062000377565b5080600190805190602001906200025792919062000377565b505050620002a56040518060400160405280600781526020017f5761737375702e00000000000000000000000000000000000000000000000000815250620002ab60201b62000e701760201c565b62000629565b6200034b81604051602401620002c291906200053d565b6040516020818303038152906040527f41304fac000000000000000000000000000000000000000000000000000000007bffffffffffffffffffffffffffffffffffffffffffffffffffffffff19166020820180517bffffffffffffffffffffffffffffffffffffffffffffffffffffffff83818316178352505050506200034e60201b60201c565b50565b60008151905060006a636f6e736f6c652e6c6f679050602083016000808483855afa5050505050565b8280546200038590620005b3565b90600052602060002090601f016020900481019282620003a95760008555620003f5565b82601f10620003c457805160ff1916838001178555620003f5565b82800160010185558215620003f5579182015b82811115620003f4578251825591602001919060010190620003d7565b5b5090506200040491906200046f565b5090565b8280548282559060005260206000209081019282156200045c579160200282015b828111156200045b5782518290805190602001906200044a92919062000377565b509160200191906001019062000429565b5b5090506200046b91906200048e565b5090565b5b808211156200048a57600081600090555060010162000470565b5090565b5b80821115620004b25760008181620004a89190620004b6565b506001016200048f565b5090565b508054620004c490620005b3565b6000825580601f10620004d85750620004f9565b601f016020900490600052602060002090810190620004f891906200046f565b5b50565b6000620005098262000561565b6200051581856200056c565b9350620005278185602086016200057d565b620005328162000618565b840191505092915050565b60006020820190508181036000830152620005598184620004fc565b905092915050565b600081519050919050565b600082825260208201905092915050565b60005b838110156200059d57808201518184015260208101905062000580565b83811115620005ad576000848401525b50505050565b60006002820490506001821680620005cc57607f821691505b60208210811415620005e357620005e2620005e9565b5b50919050565b7f4e487b7100000000000000000000000000000000000000000000000000000000600052602260045260246000fd5b6000601f19601f8301169050919050565b6137f780620006396000396000f3fe608060405234801561001057600080fd5b50600436106100f55760003560e01c80636352211e11610097578063b6a46b3b11610066578063b6a46b3b14610296578063b88d4fde146102b2578063c87b56dd146102ce578063e985e9c5146102fe576100f5565b80636352211e146101fc57806370a082311461022c57806395d89b411461025c578063a22cb4651461027a576100f5565b8063095ea7b3116100d3578063095ea7b31461017857806323b872dd1461019457806342842e0e146101b0578063514dc8c6146101cc576100f5565b806301ffc9a7146100fa57806306fdde031461012a578063081812fc14610148575b600080fd5b610114600480360381019061010f91906122b2565b61032e565b60405161012191906129cf565b60405180910390f35b610132610410565b60405161013f91906129ea565b60405180910390f35b610162600480360381019061015d9190612349565b6104a2565b60405161016f919061293f565b60405180910390f35b610192600480360381019061018d9190612276565b610527565b005b6101ae60048036038101906101a99190612170565b61063f565b005b6101ca60048036038101906101c59190612170565b61069f565b005b6101e660048036038101906101e19190612349565b6106bf565b6040516101f391906129ea565b60405180910390f35b61021660048036038101906102119190612349565b6107dd565b604051610223919061293f565b60405180910390f35b6102466004803603810190610241919061210b565b61088f565b6040516102539190612c8a565b60405180910390f35b610264610947565b60405161027191906129ea565b60405180910390f35b610294600480360381019061028f919061223a565b6109d9565b005b6102b060048036038101906102ab9190612304565b6109ef565b005b6102cc60048036038101906102c791906121bf565b610c28565b005b6102e860048036038101906102e39190612349565b610c8a565b6040516102f591906129ea565b60405180910390f35b61031860048036038101906103139190612134565b610ddc565b60405161032591906129cf565b60405180910390f35b60007f80ac58cd000000000000000000000000000000000000000000000000000000007bffffffffffffffffffffffffffffffffffffffffffffffffffffffff1916827bffffffffffffffffffffffffffffffffffffffffffffffffffffffff191614806103f957507f5b5e139f000000000000000000000000000000000000000000000000000000007bffffffffffffffffffffffffffffffffffffffffffffffffffffffff1916827bffffffffffffffffffffffffffffffffffffffffffffffffffffffff1916145b80610409575061040882610f09565b5b9050919050565b60606000805461041f90612f1e565b80601f016020809104026020016040519081016040528092919081815260200182805461044b90612f1e565b80156104985780601f1061046d57610100808354040283529160200191610498565b820191906000526020600020905b81548152906001019060200180831161047b57829003601f168201915b5050505050905090565b60006104ad82610f73565b6104ec576040517f08c379a00000000000000000000000000000000000000000000000000000000081526004016104e390612bea565b60405180910390fd5b6004600083815260200190815260200160002060009054906101000a900473ffffffffffffffffffffffffffffffffffffffff169050919050565b6000610532826107dd565b90508073ffffffffffffffffffffffffffffffffffffffff168373ffffffffffffffffffffffffffffffffffffffff1614156105a3576040517f08c379a000000000000000000000000000000000000000000000000000000000815260040161059a90612c2a565b60405180910390fd5b8073ffffffffffffffffffffffffffffffffffffffff166105c2610fdf565b73ffffffffffffffffffffffffffffffffffffffff1614806105f157506105f0816105eb610fdf565b610ddc565b5b610630576040517f08c379a000000000000000000000000000000000000000000000000000000000815260040161062790612b0a565b60405180910390fd5b61063a8383610fe7565b505050565b61065061064a610fdf565b826110a0565b61068f576040517f08c379a000000000000000000000000000000000000000000000000000000000815260040161068690612c4a565b60405180910390fd5b61069a83838361117e565b505050565b6106ba83838360405180602001604052806000815250610c28565b505050565b606060006106f36106cf846113e5565b6040516020016106df919061291d565b604051602081830303815290604052611592565b9050600a80549050816107069190612fca565b9050600a8181548110610742577f4e487b7100000000000000000000000000000000000000000000000000000000600052603260045260246000fd5b90600052602060002001805461075790612f1e565b80601f016020809104026020016040519081016040528092919081815260200182805461078390612f1e565b80156107d05780601f106107a5576101008083540402835291602001916107d0565b820191906000526020600020905b8154815290600101906020018083116107b357829003601f168201915b5050505050915050919050565b6000806002600084815260200190815260200160002060009054906101000a900473ffffffffffffffffffffffffffffffffffffffff169050600073ffffffffffffffffffffffffffffffffffffffff168173ffffffffffffffffffffffffffffffffffffffff161415610886576040517f08c379a000000000000000000000000000000000000000000000000000000000815260040161087d90612b6a565b60405180910390fd5b80915050919050565b60008073ffffffffffffffffffffffffffffffffffffffff168273ffffffffffffffffffffffffffffffffffffffff161415610900576040517f08c379a00000000000000000000000000000000000000000000000000000000081526004016108f790612b4a565b60405180910390fd5b600360008373ffffffffffffffffffffffffffffffffffffffff1673ffffffffffffffffffffffffffffffffffffffff168152602001908152602001600020549050919050565b60606001805461095690612f1e565b80601f016020809104026020016040519081016040528092919081815260200182805461098290612f1e565b80156109cf5780601f106109a4576101008083540402835291602001916109cf565b820191906000526020600020905b8154815290600101906020018083116109b257829003601f168201915b5050505050905090565b6109eb6109e4610fdf565b83836115c5565b5050565b60008282905011610a35576040517f08c379a0000000000000000000000000000000000000000000000000000000008152600401610a2c90612b2a565b60405180910390fd5b60108282905010610a7b576040517f08c379a0000000000000000000000000000000000000000000000000000000008152600401610a7290612c6a565b60405180910390fd5b6000610a876007611732565b90506000610a94826106bf565b9050600060088260098787604051602001610ab3959493929190612869565b60405160208183030381529060405290506000610afa8686610ad485611740565b604051602001610ae6939291906128b4565b604051602081830303815290604052611740565b9050600081604051602001610b0f91906128fb565b6040516020818303038152906040529050610b5e6040518060400160405280601581526020017f0a2d2d2d2d2d2d2d2d2d2d2d2d2d2d2d2d2d2d2d2d0000000000000000000000815250610e70565b610b6781610e70565b610ba56040518060400160405280601581526020017f2d2d2d2d2d2d2d2d2d2d2d2d2d2d2d2d2d2d2d2d0a0000000000000000000000815250610e70565b610baf33866118ca565b610bb985826118e8565b610bc3600761195c565b610be660405180606001604052806025815260200161375d602591398633611972565b7fbf6594c4f8a37bc4290d3a46b168a43cf05064585ee7f3b356cf2a97447d43653386604051610c179291906129a6565b60405180910390a150505050505050565b610c39610c33610fdf565b836110a0565b610c78576040517f08c379a0000000000000000000000000000000000000000000000000000000008152600401610c6f90612c4a565b60405180910390fd5b610c8484848484611a11565b50505050565b6060610c9582610f73565b610cd4576040517f08c379a0000000000000000000000000000000000000000000000000000000008152600401610ccb90612bca565b60405180910390fd5b6000600660008481526020019081526020016000208054610cf490612f1e565b80601f0160208091040260200160405190810160405280929190818152602001828054610d2090612f1e565b8015610d6d5780601f10610d4257610100808354040283529160200191610d6d565b820191906000526020600020905b815481529060010190602001808311610d5057829003601f168201915b505050505090506000610d7e611a6d565b9050600081511415610d94578192505050610dd7565b600082511115610dc9578082604051602001610db1929190612845565b60405160208183030381529060405292505050610dd7565b610dd284611a84565b925050505b919050565b6000600560008473ffffffffffffffffffffffffffffffffffffffff1673ffffffffffffffffffffffffffffffffffffffff16815260200190815260200160002060008373ffffffffffffffffffffffffffffffffffffffff1673ffffffffffffffffffffffffffffffffffffffff16815260200190815260200160002060009054906101000a900460ff16905092915050565b610f0681604051602401610e8491906129ea565b6040516020818303038152906040527f41304fac000000000000000000000000000000000000000000000000000000007bffffffffffffffffffffffffffffffffffffffffffffffffffffffff19166020820180517bffffffffffffffffffffffffffffffffffffffffffffffffffffffff8381831617835250505050611b2b565b50565b60007f01ffc9a7000000000000000000000000000000000000000000000000000000007bffffffffffffffffffffffffffffffffffffffffffffffffffffffff1916827bffffffffffffffffffffffffffffffffffffffffffffffffffffffff1916149050919050565b60008073ffffffffffffffffffffffffffffffffffffffff166002600084815260200190815260200160002060009054906101000a900473ffffffffffffffffffffffffffffffffffffffff1673ffffffffffffffffffffffffffffffffffffffff1614159050919050565b600033905090565b816004600083815260200190815260200160002060006101000a81548173ffffffffffffffffffffffffffffffffffffffff021916908373ffffffffffffffffffffffffffffffffffffffff160217905550808273ffffffffffffffffffffffffffffffffffffffff1661105a836107dd565b73ffffffffffffffffffffffffffffffffffffffff167f8c5be1e5ebec7d5bd14f71427d1e84f3dd0314c0f7b2291e5b200ac8c7c3b92560405160405180910390a45050565b60006110ab82610f73565b6110ea576040517f08c379a00000000000000000000000000000000000000000000000000000000081526004016110e190612aea565b60405180910390fd5b60006110f5836107dd565b90508073ffffffffffffffffffffffffffffffffffffffff168473ffffffffffffffffffffffffffffffffffffffff16148061116457508373ffffffffffffffffffffffffffffffffffffffff1661114c846104a2565b73ffffffffffffffffffffffffffffffffffffffff16145b8061117557506111748185610ddc565b5b91505092915050565b8273ffffffffffffffffffffffffffffffffffffffff1661119e826107dd565b73ffffffffffffffffffffffffffffffffffffffff16146111f4576040517f08c379a00000000000000000000000000000000000000000000000000000000081526004016111eb90612a6a565b60405180910390fd5b600073ffffffffffffffffffffffffffffffffffffffff168273ffffffffffffffffffffffffffffffffffffffff161415611264576040517f08c379a000000000000000000000000000000000000000000000000000000000815260040161125b90612aaa565b60405180910390fd5b61126f838383611b54565b61127a600082610fe7565b6001600360008573ffffffffffffffffffffffffffffffffffffffff1673ffffffffffffffffffffffffffffffffffffffff16815260200190815260200160002060008282546112ca9190612e34565b925050819055506001600360008473ffffffffffffffffffffffffffffffffffffffff1673ffffffffffffffffffffffffffffffffffffffff16815260200190815260200160002060008282546113219190612d53565b92505081905550816002600083815260200190815260200160002060006101000a81548173ffffffffffffffffffffffffffffffffffffffff021916908373ffffffffffffffffffffffffffffffffffffffff160217905550808273ffffffffffffffffffffffffffffffffffffffff168473ffffffffffffffffffffffffffffffffffffffff167fddf252ad1be2c89b69c2b068fc378daa952ba7f163c4a11628f55a4df523b3ef60405160405180910390a46113e0838383611b59565b505050565b6060600082141561142d576040518060400160405280600181526020017f3000000000000000000000000000000000000000000000000000000000000000815250905061158d565b600082905060005b6000821461145f57808061144890612f81565b915050600a826114589190612da9565b9150611435565b60008167ffffffffffffffff8111156114a1577f4e487b7100000000000000000000000000000000000000000000000000000000600052604160045260246000fd5b6040519080825280601f01601f1916602001820160405280156114d35781602001600182028036833780820191505090505b5090505b60008514611586576001826114ec9190612e34565b9150600a856114fb9190612fca565b60306115079190612d53565b60f81b818381518110611543577f4e487b7100000000000000000000000000000000000000000000000000000000600052603260045260246000fd5b60200101907effffffffffffffffffffffffffffffffffffffffffffffffffffffffffffff1916908160001a905350600a8561157f9190612da9565b94506114d7565b8093505050505b919050565b6000816040516020016115a5919061282e565b6040516020818303038152906040528051906020012060001c9050919050565b8173ffffffffffffffffffffffffffffffffffffffff168373ffffffffffffffffffffffffffffffffffffffff161415611634576040517f08c379a000000000000000000000000000000000000000000000000000000000815260040161162b90612aca565b60405180910390fd5b80600560008573ffffffffffffffffffffffffffffffffffffffff1673ffffffffffffffffffffffffffffffffffffffff16815260200190815260200160002060008473ffffffffffffffffffffffffffffffffffffffff1673ffffffffffffffffffffffffffffffffffffffff16815260200190815260200160002060006101000a81548160ff0219169083151502179055508173ffffffffffffffffffffffffffffffffffffffff168373ffffffffffffffffffffffffffffffffffffffff167f17307eab39ab6107e8899845ad3d59bd9653f200f220920489ca2b5937696c318360405161172591906129cf565b60405180910390a3505050565b600081600001549050919050565b6060600082511415611763576040518060200160405280600081525090506118c5565b600060405180606001604052806040815260200161378260409139905060006003600285516117929190612d53565b61179c9190612da9565b60046117a89190612dda565b67ffffffffffffffff8111156117e7577f4e487b7100000000000000000000000000000000000000000000000000000000600052604160045260246000fd5b6040519080825280601f01601f1916602001820160405280156118195781602001600182028036833780820191505090505b509050600182016020820185865187015b80821015611885576003820191508151603f8160121c168501518453600184019350603f81600c1c168501518453600184019350603f8160061c168501518453600184019350603f811685015184536001840193505061182a565b50506003865106600181146118a157600281146118b4576118bc565b603d6001830353603d60028303536118bc565b603d60018303535b50505080925050505b919050565b6118e4828260405180602001604052806000815250611b5e565b5050565b6118f182610f73565b611930576040517f08c379a000000000000000000000000000000000000000000000000000000000815260040161192790612b8a565b60405180910390fd5b80600660008481526020019081526020016000209080519060200190611957929190611f4d565b505050565b6001816000016000828254019250508190555050565b611a0c83838360405160240161198a93929190612a0c565b6040516020818303038152906040527fe3849f79000000000000000000000000000000000000000000000000000000007bffffffffffffffffffffffffffffffffffffffffffffffffffffffff19166020820180517bffffffffffffffffffffffffffffffffffffffffffffffffffffffff8381831617835250505050611b2b565b505050565b611a1c84848461117e565b611a2884848484611bb9565b611a67576040517f08c379a0000000000000000000000000000000000000000000000000000000008152600401611a5e90612a4a565b60405180910390fd5b50505050565b606060405180602001604052806000815250905090565b6060611a8f82610f73565b611ace576040517f08c379a0000000000000000000000000000000000000000000000000000000008152600401611ac590612c0a565b60405180910390fd5b6000611ad8611a6d565b90506000815111611af85760405180602001604052806000815250611b23565b80611b02846113e5565b604051602001611b13929190612845565b6040516020818303038152906040525b915050919050565b60008151905060006a636f6e736f6c652e6c6f679050602083016000808483855afa5050505050565b505050565b505050565b611b688383611d50565b611b756000848484611bb9565b611bb4576040517f08c379a0000000000000000000000000000000000000000000000000000000008152600401611bab90612a4a565b60405180910390fd5b505050565b6000611bda8473ffffffffffffffffffffffffffffffffffffffff16611f2a565b15611d43578373ffffffffffffffffffffffffffffffffffffffff1663150b7a02611c03610fdf565b8786866040518563ffffffff1660e01b8152600401611c25949392919061295a565b602060405180830381600087803b158015611c3f57600080fd5b505af1925050508015611c7057506040513d601f19601f82011682018060405250810190611c6d91906122db565b60015b611cf3573d8060008114611ca0576040519150601f19603f3d011682016040523d82523d6000602084013e611ca5565b606091505b50600081511415611ceb576040517f08c379a0000000000000000000000000000000000000000000000000000000008152600401611ce290612a4a565b60405180910390fd5b805181602001fd5b63150b7a0260e01b7bffffffffffffffffffffffffffffffffffffffffffffffffffffffff1916817bffffffffffffffffffffffffffffffffffffffffffffffffffffffff191614915050611d48565b600190505b949350505050565b600073ffffffffffffffffffffffffffffffffffffffff168273ffffffffffffffffffffffffffffffffffffffff161415611dc0576040517f08c379a0000000000000000000000000000000000000000000000000000000008152600401611db790612baa565b60405180910390fd5b611dc981610f73565b15611e09576040517f08c379a0000000000000000000000000000000000000000000000000000000008152600401611e0090612a8a565b60405180910390fd5b611e1560008383611b54565b6001600360008473ffffffffffffffffffffffffffffffffffffffff1673ffffffffffffffffffffffffffffffffffffffff1681526020019081526020016000206000828254611e659190612d53565b92505081905550816002600083815260200190815260200160002060006101000a81548173ffffffffffffffffffffffffffffffffffffffff021916908373ffffffffffffffffffffffffffffffffffffffff160217905550808273ffffffffffffffffffffffffffffffffffffffff16600073ffffffffffffffffffffffffffffffffffffffff167fddf252ad1be2c89b69c2b068fc378daa952ba7f163c4a11628f55a4df523b3ef60405160405180910390a4611f2660008383611b59565b5050565b6000808273ffffffffffffffffffffffffffffffffffffffff163b119050919050565b828054611f5990612f1e565b90600052602060002090601f016020900481019282611f7b5760008555611fc2565b82601f10611f9457805160ff1916838001178555611fc2565b82800160010185558215611fc2579182015b82811115611fc1578251825591602001919060010190611fa6565b5b509050611fcf9190611fd3565b5090565b5b80821115611fec576000816000905550600101611fd4565b5090565b6000612003611ffe84612cca565b612ca5565b90508281526020810184848401111561201b57600080fd5b612026848285612edc565b509392505050565b60008135905061203d81613700565b92915050565b60008135905061205281613717565b92915050565b6000813590506120678161372e565b92915050565b60008151905061207c8161372e565b92915050565b600082601f83011261209357600080fd5b81356120a3848260208601611ff0565b91505092915050565b60008083601f8401126120be57600080fd5b8235905067ffffffffffffffff8111156120d757600080fd5b6020830191508360018202830111156120ef57600080fd5b9250929050565b60008135905061210581613745565b92915050565b60006020828403121561211d57600080fd5b600061212b8482850161202e565b91505092915050565b6000806040838503121561214757600080fd5b60006121558582860161202e565b92505060206121668582860161202e565b9150509250929050565b60008060006060848603121561218557600080fd5b60006121938682870161202e565b93505060206121a48682870161202e565b92505060406121b5868287016120f6565b9150509250925092565b600080600080608085870312156121d557600080fd5b60006121e38782880161202e565b94505060206121f48782880161202e565b9350506040612205878288016120f6565b925050606085013567ffffffffffffffff81111561222257600080fd5b61222e87828801612082565b91505092959194509250565b6000806040838503121561224d57600080fd5b600061225b8582860161202e565b925050602061226c85828601612043565b9150509250929050565b6000806040838503121561228957600080fd5b60006122978582860161202e565b92505060206122a8858286016120f6565b9150509250929050565b6000602082840312156122c457600080fd5b60006122d284828501612058565b91505092915050565b6000602082840312156122ed57600080fd5b60006122fb8482850161206d565b91505092915050565b6000806020838503121561231757600080fd5b600083013567ffffffffffffffff81111561233157600080fd5b61233d858286016120ac565b92509250509250929050565b60006020828403121561235b57600080fd5b6000612369848285016120f6565b91505092915050565b61237b81612e68565b82525050565b61238a81612e7a565b82525050565b600061239b82612d10565b6123a58185612d26565b93506123b5818560208601612eeb565b6123be816130b7565b840191505092915050565b60006123d58385612d48565b93506123e2838584612edc565b82840190509392505050565b60006123f982612d1b565b6124038185612d37565b9350612413818560208601612eeb565b61241c816130b7565b840191505092915050565b600061243282612d1b565b61243c8185612d48565b935061244c818560208601612eeb565b80840191505092915050565b6000815461246581612f1e565b61246f8186612d48565b9450600182166000811461248a576001811461249b576124ce565b60ff198316865281860193506124ce565b6124a485612cfb565b60005b838110156124c6578154818901526001820191506020810190506124a7565b838801955050505b50505092915050565b60006124e4603283612d37565b91506124ef826130c8565b604082019050919050565b6000612507602583612d37565b915061251282613117565b604082019050919050565b600061252a601c83612d37565b915061253582613166565b602082019050919050565b600061254d602483612d37565b91506125588261318f565b604082019050919050565b6000612570601983612d37565b915061257b826131de565b602082019050919050565b6000612593602c83612d37565b915061259e82613207565b604082019050919050565b60006125b6600d83612d48565b91506125c182613256565b600d82019050919050565b60006125d9603883612d37565b91506125e48261327f565b604082019050919050565b60006125fc600d83612d37565b9150612607826132ce565b602082019050919050565b600061261f602a83612d37565b915061262a826132f7565b604082019050919050565b6000612642602983612d37565b915061264d82613346565b604082019050919050565b6000612665602e83612d37565b915061267082613395565b604082019050919050565b6000612688600283612d48565b9150612693826133e4565b600282019050919050565b60006126ab602083612d37565b91506126b68261340d565b602082019050919050565b60006126ce603183612d37565b91506126d982613436565b604082019050919050565b60006126f1602c83612d37565b91506126fc82613485565b604082019050919050565b6000612714602f83612d37565b915061271f826134d4565b604082019050919050565b6000612737600a83612d48565b915061274282613523565b600a82019050919050565b600061275a602183612d37565b91506127658261354c565b604082019050919050565b600061277d601d83612d48565b91506127888261359b565b601d82019050919050565b60006127a0603183612d37565b91506127ab826135c4565b604082019050919050565b60006127c3606683612d48565b91506127ce82613613565b606682019050919050565b60006127e6600583612d48565b91506127f1826136ae565b600582019050919050565b6000612809600e83612d37565b9150612814826136d7565b602082019050919050565b61282881612ed2565b82525050565b600061283a8284612427565b915081905092915050565b60006128518285612427565b915061285d8284612427565b91508190509392505050565b60006128758288612458565b91506128818287612427565b915061288d8286612458565b915061289a8284866123c9565b91506128a5826125a9565b91508190509695505050505050565b60006128bf8261272a565b91506128cc8285876123c9565b91506128d7826127b6565b91506128e38284612427565b91506128ee8261267b565b9150819050949350505050565b600061290682612770565b91506129128284612427565b915081905092915050565b6000612928826127d9565b91506129348284612427565b915081905092915050565b60006020820190506129546000830184612372565b92915050565b600060808201905061296f6000830187612372565b61297c6020830186612372565b612989604083018561281f565b818103606083015261299b8184612390565b905095945050505050565b60006040820190506129bb6000830185612372565b6129c8602083018461281f565b9392505050565b60006020820190506129e46000830184612381565b92915050565b60006020820190508181036000830152612a0481846123ee565b905092915050565b60006060820190508181036000830152612a2681866123ee565b9050612a35602083018561281f565b612a426040830184612372565b949350505050565b60006020820190508181036000830152612a63816124d7565b9050919050565b60006020820190508181036000830152612a83816124fa565b9050919050565b60006020820190508181036000830152612aa38161251d565b9050919050565b60006020820190508181036000830152612ac381612540565b9050919050565b60006020820190508181036000830152612ae381612563565b9050919050565b60006020820190508181036000830152612b0381612586565b9050919050565b60006020820190508181036000830152612b23816125cc565b9050919050565b60006020820190508181036000830152612b43816125ef565b9050919050565b60006020820190508181036000830152612b6381612612565b9050919050565b60006020820190508181036000830152612b8381612635565b9050919050565b60006020820190508181036000830152612ba381612658565b9050919050565b60006020820190508181036000830152612bc38161269e565b9050919050565b60006020820190508181036000830152612be3816126c1565b9050919050565b60006020820190508181036000830152612c03816126e4565b9050919050565b60006020820190508181036000830152612c2381612707565b9050919050565b60006020820190508181036000830152612c438161274d565b9050919050565b60006020820190508181036000830152612c6381612793565b9050919050565b60006020820190508181036000830152612c83816127fc565b9050919050565b6000602082019050612c9f600083018461281f565b92915050565b6000612caf612cc0565b9050612cbb8282612f50565b919050565b6000604051905090565b600067ffffffffffffffff821115612ce557612ce4613088565b5b612cee826130b7565b9050602081019050919050565b60008190508160005260206000209050919050565b600081519050919050565b600081519050919050565b600082825260208201905092915050565b600082825260208201905092915050565b600081905092915050565b6000612d5e82612ed2565b9150612d6983612ed2565b9250827fffffffffffffffffffffffffffffffffffffffffffffffffffffffffffffffff03821115612d9e57612d9d612ffb565b5b828201905092915050565b6000612db482612ed2565b9150612dbf83612ed2565b925082612dcf57612dce61302a565b5b828204905092915050565b6000612de582612ed2565b9150612df083612ed2565b9250817fffffffffffffffffffffffffffffffffffffffffffffffffffffffffffffffff0483118215151615612e2957612e28612ffb565b5b828202905092915050565b6000612e3f82612ed2565b9150612e4a83612ed2565b925082821015612e5d57612e5c612ffb565b5b828203905092915050565b6000612e7382612eb2565b9050919050565b60008115159050919050565b60007fffffffff0000000000000000000000000000000000000000000000000000000082169050919050565b600073ffffffffffffffffffffffffffffffffffffffff82169050919050565b6000819050919050565b82818337600083830152505050565b60005b83811015612f09578082015181840152602081019050612eee565b83811115612f18576000848401525b50505050565b60006002820490506001821680612f3657607f821691505b60208210811415612f4a57612f49613059565b5b50919050565b612f59826130b7565b810181811067ffffffffffffffff82111715612f7857612f77613088565b5b80604052505050565b6000612f8c82612ed2565b91507fffffffffffffffffffffffffffffffffffffffffffffffffffffffffffffffff821415612fbf57612fbe612ffb565b5b600182019050919050565b6000612fd582612ed2565b9150612fe083612ed2565b925082612ff057612fef61302a565b5b828206905092915050565b7f4e487b7100000000000000000000000000000000000000000000000000000000600052601160045260246000fd5b7f4e487b7100000000000000000000000000000000000000000000000000000000600052601260045260246000fd5b7f4e487b7100000000000000000000000000000000000000000000000000000000600052602260045260246000fd5b7f4e487b7100000000000000000000000000000000000000000000000000000000600052604160045260246000fd5b6000601f19601f8301169050919050565b7f4552433732313a207472616e7366657220746f206e6f6e20455243373231526560008201527f63656976657220696d706c656d656e7465720000000000000000000000000000602082015250565b7f4552433732313a207472616e736665722066726f6d20696e636f72726563742060008201527f6f776e6572000000000000000000000000000000000000000000000000000000602082015250565b7f4552433732313a20746f6b656e20616c7265616479206d696e74656400000000600082015250565b7f4552433732313a207472616e7366657220746f20746865207a65726f2061646460008201527f7265737300000000000000000000000000000000000000000000000000000000602082015250565b7f4552433732313a20617070726f766520746f2063616c6c657200000000000000600082015250565b7f4552433732313a206f70657261746f7220717565727920666f72206e6f6e657860008201527f697374656e7420746f6b656e0000000000000000000000000000000000000000602082015250565b7f3c2f746578743e3c2f7376673e00000000000000000000000000000000000000600082015250565b7f4552433732313a20617070726f76652063616c6c6572206973206e6f74206f7760008201527f6e6572206e6f7220617070726f76656420666f7220616c6c0000000000000000602082015250565b7f456d70747920737472696e672e00000000000000000000000000000000000000600082015250565b7f4552433732313a2062616c616e636520717565727920666f7220746865207a6560008201527f726f206164647265737300000000000000000000000000000000000000000000602082015250565b7f4552433732313a206f776e657220717565727920666f72206e6f6e657869737460008201527f656e7420746f6b656e0000000000000000000000000000000000000000000000602082015250565b7f45524337323155524953746f726167653a2055524920736574206f66206e6f6e60008201527f6578697374656e7420746f6b656e000000000000000000000000000000000000602082015250565b7f227d000000000000000000000000000000000000000000000000000000000000600082015250565b7f4552433732313a206d696e7420746f20746865207a65726f2061646472657373600082015250565b7f45524337323155524953746f726167653a2055524920717565727920666f722060008201527f6e6f6e6578697374656e7420746f6b656e000000000000000000000000000000602082015250565b7f4552433732313a20617070726f76656420717565727920666f72206e6f6e657860008201527f697374656e7420746f6b656e0000000000000000000000000000000000000000602082015250565b7f4552433732314d657461646174613a2055524920717565727920666f72206e6f60008201527f6e6578697374656e7420746f6b656e0000000000000000000000000000000000602082015250565b7f7b226e616d65223a202200000000000000000000000000000000000000000000600082015250565b7f4552433732313a20617070726f76616c20746f2063757272656e74206f776e6560008201527f7200000000000000000000000000000000000000000000000000000000000000602082015250565b7f646174613a6170706c69636174696f6e2f6a736f6e3b6261736536342c000000600082015250565b7f4552433732313a207472616e736665722063616c6c6572206973206e6f74206f60008201527f776e6572206e6f7220617070726f766564000000000000000000000000000000602082015250565b7f222c20226465736372697074696f6e223a2022596f757220636f6c6c6563746960008201527f626c6520746f20656e7465722074686520776f726c64206f6620776562332e2260208201527f2c2022696d616765223a2022646174613a696d6167652f7376672b786d6c3b6260408201527f61736536342c0000000000000000000000000000000000000000000000000000606082015250565b7f434f4c4f52000000000000000000000000000000000000000000000000000000600082015250565b7f4e616d6520746f6f206c6f6e672e000000000000000000000000000000000000600082015250565b61370981612e68565b811461371457600080fd5b50565b61372081612e7a565b811461372b57600080fd5b50565b61373781612e86565b811461374257600080fd5b50565b61374e81612ed2565b811461375957600080fd5b5056fe416e204e465420772f20494420257320686173206265656e206d696e74656420746f2025734142434445464748494a4b4c4d4e4f505152535455565758595a6162636465666768696a6b6c6d6e6f707172737475767778797a303132333435363738392b2fa2646970667358221220f2b8385cb33cc9fb1154f71ba4f049db3d0beeb9ef745cd63343580600962b0964736f6c634300080100333c73766720786d6c6e733d27687474703a2f2f7777772e77332e6f72672f323030302f73766727207072657365727665417370656374526174696f3d27784d696e594d696e206d656574272076696577426f783d273020302033353020333530273e3c7374796c653e2e62617365207b2066696c6c3a2077686974653b20666f6e742d66616d696c793a2073657269663b20666f6e742d73697a653a20323470783b207d3c2f7374796c653e3c726563742077696474683d273130302527206865696768743d2731303025272066696c6c3d27272f3e3c7465787420783d273530252720793d273530252720636c6173733d27626173652720646f6d696e616e742d626173656c696e653d276d6964646c652720746578742d616e63686f723d276d6964646c65273e",
  "linkReferences": {},
  "deployedLinkReferences": {}
}