{
  "_format": "hh-sol-artifact-1",
  "contractName": "OnboardingCollectible",
  "sourceName": "contracts/OnboardingCollectible.sol",
  "abi": [
    {
      "inputs": [],
      "stateMutability": "nonpayable",
      "type": "constructor"
    },
    {
      "anonymous": false,
      "inputs": [
        {
          "indexed": true,
          "internalType": "address",
          "name": "owner",
          "type": "address"
        },
        {
          "indexed": true,
          "internalType": "address",
          "name": "approved",
          "type": "address"
        },
        {
          "indexed": true,
          "internalType": "uint256",
          "name": "tokenId",
          "type": "uint256"
        }
      ],
      "name": "Approval",
      "type": "event"
    },
    {
      "anonymous": false,
      "inputs": [
        {
          "indexed": true,
          "internalType": "address",
          "name": "owner",
          "type": "address"
        },
        {
          "indexed": true,
          "internalType": "address",
          "name": "operator",
          "type": "address"
        },
        {
          "indexed": false,
          "internalType": "bool",
          "name": "approved",
          "type": "bool"
        }
      ],
      "name": "ApprovalForAll",
      "type": "event"
    },
    {
      "anonymous": false,
      "inputs": [
        {
          "indexed": true,
          "internalType": "address",
          "name": "from",
          "type": "address"
        },
        {
          "indexed": true,
          "internalType": "address",
          "name": "to",
          "type": "address"
        },
        {
          "indexed": true,
          "internalType": "uint256",
          "name": "tokenId",
          "type": "uint256"
        }
      ],
      "name": "Transfer",
      "type": "event"
    },
    {
      "anonymous": false,
      "inputs": [
        {
          "indexed": false,
          "internalType": "address",
          "name": "sender",
          "type": "address"
        },
        {
          "indexed": false,
          "internalType": "uint256",
          "name": "tokenId",
          "type": "uint256"
        }
      ],
      "name": "collectibleMinted",
      "type": "event"
    },
    {
      "inputs": [
        {
          "internalType": "address",
          "name": "to",
          "type": "address"
        },
        {
          "internalType": "uint256",
          "name": "tokenId",
          "type": "uint256"
        }
      ],
      "name": "approve",
      "outputs": [],
      "stateMutability": "nonpayable",
      "type": "function"
    },
    {
      "inputs": [
        {
          "internalType": "address",
          "name": "owner",
          "type": "address"
        }
      ],
      "name": "balanceOf",
      "outputs": [
        {
          "internalType": "uint256",
          "name": "",
          "type": "uint256"
        }
      ],
      "stateMutability": "view",
      "type": "function"
    },
    {
      "inputs": [],
      "name": "create",
      "outputs": [],
      "stateMutability": "nonpayable",
      "type": "function"
    },
    {
      "inputs": [
        {
          "internalType": "uint256",
          "name": "tokenId",
          "type": "uint256"
        }
      ],
      "name": "getApproved",
      "outputs": [
        {
          "internalType": "address",
          "name": "",
          "type": "address"
        }
      ],
      "stateMutability": "view",
      "type": "function"
    },
    {
      "inputs": [
        {
          "internalType": "address",
          "name": "owner",
          "type": "address"
        },
        {
          "internalType": "address",
          "name": "operator",
          "type": "address"
        }
      ],
      "name": "isApprovedForAll",
      "outputs": [
        {
          "internalType": "bool",
          "name": "",
          "type": "bool"
        }
      ],
      "stateMutability": "view",
      "type": "function"
    },
    {
      "inputs": [],
      "name": "name",
      "outputs": [
        {
          "internalType": "string",
          "name": "",
          "type": "string"
        }
      ],
      "stateMutability": "view",
      "type": "function"
    },
    {
      "inputs": [
        {
          "internalType": "uint256",
          "name": "tokenId",
          "type": "uint256"
        }
      ],
      "name": "ownerOf",
      "outputs": [
        {
          "internalType": "address",
          "name": "",
          "type": "address"
        }
      ],
      "stateMutability": "view",
      "type": "function"
    },
    {
      "inputs": [
        {
          "internalType": "uint256",
          "name": "tokenId",
          "type": "uint256"
        }
      ],
      "name": "pickRandomColor",
      "outputs": [
        {
          "internalType": "string",
          "name": "",
          "type": "string"
        }
      ],
      "stateMutability": "view",
      "type": "function"
    },
    {
      "inputs": [
        {
          "internalType": "uint256",
          "name": "tokenId",
          "type": "uint256"
        }
      ],
      "name": "pickRandomFirstWord",
      "outputs": [
        {
          "internalType": "string",
          "name": "",
          "type": "string"
        }
      ],
      "stateMutability": "view",
      "type": "function"
    },
    {
      "inputs": [
        {
          "internalType": "uint256",
          "name": "tokenId",
          "type": "uint256"
        }
      ],
      "name": "pickRandomSecondWord",
      "outputs": [
        {
          "internalType": "string",
          "name": "",
          "type": "string"
        }
      ],
      "stateMutability": "view",
      "type": "function"
    },
    {
      "inputs": [
        {
          "internalType": "uint256",
          "name": "tokenId",
          "type": "uint256"
        }
      ],
      "name": "pickRandomThirdWord",
      "outputs": [
        {
          "internalType": "string",
          "name": "",
          "type": "string"
        }
      ],
      "stateMutability": "view",
      "type": "function"
    },
    {
      "inputs": [
        {
          "internalType": "address",
          "name": "from",
          "type": "address"
        },
        {
          "internalType": "address",
          "name": "to",
          "type": "address"
        },
        {
          "internalType": "uint256",
          "name": "tokenId",
          "type": "uint256"
        }
      ],
      "name": "safeTransferFrom",
      "outputs": [],
      "stateMutability": "nonpayable",
      "type": "function"
    },
    {
      "inputs": [
        {
          "internalType": "address",
          "name": "from",
          "type": "address"
        },
        {
          "internalType": "address",
          "name": "to",
          "type": "address"
        },
        {
          "internalType": "uint256",
          "name": "tokenId",
          "type": "uint256"
        },
        {
          "internalType": "bytes",
          "name": "_data",
          "type": "bytes"
        }
      ],
      "name": "safeTransferFrom",
      "outputs": [],
      "stateMutability": "nonpayable",
      "type": "function"
    },
    {
      "inputs": [
        {
          "internalType": "address",
          "name": "operator",
          "type": "address"
        },
        {
          "internalType": "bool",
          "name": "approved",
          "type": "bool"
        }
      ],
      "name": "setApprovalForAll",
      "outputs": [],
      "stateMutability": "nonpayable",
      "type": "function"
    },
    {
      "inputs": [
        {
          "internalType": "bytes4",
          "name": "interfaceId",
          "type": "bytes4"
        }
      ],
      "name": "supportsInterface",
      "outputs": [
        {
          "internalType": "bool",
          "name": "",
          "type": "bool"
        }
      ],
      "stateMutability": "view",
      "type": "function"
    },
    {
      "inputs": [],
      "name": "symbol",
      "outputs": [
        {
          "internalType": "string",
          "name": "",
          "type": "string"
        }
      ],
      "stateMutability": "view",
      "type": "function"
    },
    {
      "inputs": [
        {
          "internalType": "uint256",
          "name": "tokenId",
          "type": "uint256"
        }
      ],
      "name": "tokenURI",
      "outputs": [
        {
          "internalType": "string",
          "name": "",
          "type": "string"
        }
      ],
      "stateMutability": "view",
      "type": "function"
    },
    {
      "inputs": [
        {
          "internalType": "address",
          "name": "from",
          "type": "address"
        },
        {
          "internalType": "address",
          "name": "to",
          "type": "address"
        },
        {
          "internalType": "uint256",
          "name": "tokenId",
          "type": "uint256"
        }
      ],
      "name": "transferFrom",
      "outputs": [],
      "stateMutability": "nonpayable",
      "type": "function"
    }
  ],
  "bytecode": "0x608060405260405180610100016040528060d381526020016200455460d3913960089080519060200190620000369291906200068f565b50604051806080016040528060568152602001620046276056913960099080519060200190620000689291906200068f565b5060405180608001604052806040518060400160405280600181526020017f310000000000000000000000000000000000000000000000000000000000000081525081526020016040518060400160405280600181526020017f320000000000000000000000000000000000000000000000000000000000000081525081526020016040518060400160405280600181526020017f330000000000000000000000000000000000000000000000000000000000000081525081526020016040518060400160405280600181526020017f3400000000000000000000000000000000000000000000000000000000000000815250815250600a9060046200017092919062000720565b5060405180608001604052806040518060400160405280600181526020017f310000000000000000000000000000000000000000000000000000000000000081525081526020016040518060400160405280600181526020017f320000000000000000000000000000000000000000000000000000000000000081525081526020016040518060400160405280600181526020017f330000000000000000000000000000000000000000000000000000000000000081525081526020016040518060400160405280600181526020017f3400000000000000000000000000000000000000000000000000000000000000815250815250600b9060046200027892919062000720565b5060405180608001604052806040518060400160405280600181526020017f310000000000000000000000000000000000000000000000000000000000000081525081526020016040518060400160405280600181526020017f320000000000000000000000000000000000000000000000000000000000000081525081526020016040518060400160405280600181526020017f330000000000000000000000000000000000000000000000000000000000000081525081526020016040518060400160405280600181526020017f3400000000000000000000000000000000000000000000000000000000000000815250815250600c9060046200038092919062000720565b506040518060a001604052806040518060400160405280600381526020017f726564000000000000000000000000000000000000000000000000000000000081525081526020016040518060400160405280600581526020017f626c61636b00000000000000000000000000000000000000000000000000000081525081526020016040518060400160405280600681526020017f79656c6c6f77000000000000000000000000000000000000000000000000000081525081526020016040518060400160405280600481526020017f626c75650000000000000000000000000000000000000000000000000000000081525081526020016040518060400160405280600581526020017f677265656e000000000000000000000000000000000000000000000000000000815250815250600d906005620004c392919062000787565b50348015620004d157600080fd5b506040518060400160405280600b81526020017f77656233207061737365730000000000000000000000000000000000000000008152506040518060400160405280600381526020017f474d2100000000000000000000000000000000000000000000000000000000008152508160009080519060200190620005569291906200068f565b5080600190805190602001906200056f9291906200068f565b505050620005bd6040518060400160405280601881526020017f54686973206973206d79204e465420636f6e74726163742e0000000000000000815250620005c360201b6200122a1760201c565b620009a8565b6200066381604051602401620005da9190620008bc565b6040516020818303038152906040527f41304fac000000000000000000000000000000000000000000000000000000007bffffffffffffffffffffffffffffffffffffffffffffffffffffffff19166020820180517bffffffffffffffffffffffffffffffffffffffffffffffffffffffff83818316178352505050506200066660201b60201c565b50565b60008151905060006a636f6e736f6c652e6c6f679050602083016000808483855afa5050505050565b8280546200069d9062000932565b90600052602060002090601f016020900481019282620006c157600085556200070d565b82601f10620006dc57805160ff19168380011785556200070d565b828001600101855582156200070d579182015b828111156200070c578251825591602001919060010190620006ef565b5b5090506200071c9190620007ee565b5090565b82805482825590600052602060002090810192821562000774579160200282015b8281111562000773578251829080519060200190620007629291906200068f565b509160200191906001019062000741565b5b5090506200078391906200080d565b5090565b828054828255906000526020600020908101928215620007db579160200282015b82811115620007da578251829080519060200190620007c99291906200068f565b5091602001919060010190620007a8565b5b509050620007ea91906200080d565b5090565b5b8082111562000809576000816000905550600101620007ef565b5090565b5b8082111562000831576000818162000827919062000835565b506001016200080e565b5090565b508054620008439062000932565b6000825580601f1062000857575062000878565b601f016020900490600052602060002090810190620008779190620007ee565b5b50565b60006200088882620008e0565b620008948185620008eb565b9350620008a6818560208601620008fc565b620008b18162000997565b840191505092915050565b60006020820190508181036000830152620008d881846200087b565b905092915050565b600081519050919050565b600082825260208201905092915050565b60005b838110156200091c578082015181840152602081019050620008ff565b838111156200092c576000848401525b50505050565b600060028204905060018216806200094b57607f821691505b6020821081141562000962576200096162000968565b5b50919050565b7f4e487b7100000000000000000000000000000000000000000000000000000000600052602260045260246000fd5b6000601f19601f8301169050919050565b613b9c80620009b86000396000f3fe608060405234801561001057600080fd5b50600436106101165760003560e01c806370a08231116100a2578063b88d4fde11610071578063b88d4fde14610317578063c575757a14610333578063c87b56dd14610363578063e985e9c514610393578063efc81a8c146103c357610116565b806370a082311461027d57806395d89b41146102ad578063a22cb465146102cb578063b187301f146102e757610116565b806323b872dd116100e957806323b872dd146101b55780632de38d68146101d157806342842e0e14610201578063514dc8c61461021d5780636352211e1461024d57610116565b806301ffc9a71461011b57806306fdde031461014b578063081812fc14610169578063095ea7b314610199575b600080fd5b61013560048036038101906101309190612622565b6103cd565b6040516101429190612d8b565b60405180910390f35b6101536104af565b6040516101609190612da6565b60405180910390f35b610183600480360381019061017e9190612674565b610541565b6040516101909190612cfb565b60405180910390f35b6101b360048036038101906101ae91906125e6565b6105c6565b005b6101cf60048036038101906101ca91906124e0565b6106de565b005b6101eb60048036038101906101e69190612674565b61073e565b6040516101f89190612da6565b60405180910390f35b61021b600480360381019061021691906124e0565b61085c565b005b61023760048036038101906102329190612674565b61087c565b6040516102449190612da6565b60405180910390f35b61026760048036038101906102629190612674565b61099a565b6040516102749190612cfb565b60405180910390f35b6102976004803603810190610292919061247b565b610a4c565b6040516102a49190613006565b60405180910390f35b6102b5610b04565b6040516102c29190612da6565b60405180910390f35b6102e560048036038101906102e091906125aa565b610b96565b005b61030160048036038101906102fc9190612674565b610bac565b60405161030e9190612da6565b60405180910390f35b610331600480360381019061032c919061252f565b610cca565b005b61034d60048036038101906103489190612674565b610d2c565b60405161035a9190612da6565b60405180910390f35b61037d60048036038101906103789190612674565b610e4a565b60405161038a9190612da6565b60405180910390f35b6103ad60048036038101906103a891906124a4565b610f9c565b6040516103ba9190612d8b565b60405180910390f35b6103cb611030565b005b60007f80ac58cd000000000000000000000000000000000000000000000000000000007bffffffffffffffffffffffffffffffffffffffffffffffffffffffff1916827bffffffffffffffffffffffffffffffffffffffffffffffffffffffff1916148061049857507f5b5e139f000000000000000000000000000000000000000000000000000000007bffffffffffffffffffffffffffffffffffffffffffffffffffffffff1916827bffffffffffffffffffffffffffffffffffffffffffffffffffffffff1916145b806104a857506104a7826112c3565b5b9050919050565b6060600080546104be9061329a565b80601f01602080910402602001604051908101604052809291908181526020018280546104ea9061329a565b80156105375780601f1061050c57610100808354040283529160200191610537565b820191906000526020600020905b81548152906001019060200180831161051a57829003601f168201915b5050505050905090565b600061054c8261132d565b61058b576040517f08c379a000000000000000000000000000000000000000000000000000000000815260040161058290612f86565b60405180910390fd5b6004600083815260200190815260200160002060009054906101000a900473ffffffffffffffffffffffffffffffffffffffff169050919050565b60006105d18261099a565b90508073ffffffffffffffffffffffffffffffffffffffff168373ffffffffffffffffffffffffffffffffffffffff161415610642576040517f08c379a000000000000000000000000000000000000000000000000000000000815260040161063990612fc6565b60405180910390fd5b8073ffffffffffffffffffffffffffffffffffffffff16610661611399565b73ffffffffffffffffffffffffffffffffffffffff161480610690575061068f8161068a611399565b610f9c565b5b6106cf576040517f08c379a00000000000000000000000000000000000000000000000000000000081526004016106c690612ec6565b60405180910390fd5b6106d983836113a1565b505050565b6106ef6106e9611399565b8261145a565b61072e576040517f08c379a000000000000000000000000000000000000000000000000000000000815260040161072590612fe6565b60405180910390fd5b610739838383611538565b505050565b6060600061077261074e8461179f565b60405160200161075e9190612c95565b60405160208183030381529060405261194c565b9050600a80549050816107859190613346565b9050600a81815481106107c1577f4e487b7100000000000000000000000000000000000000000000000000000000600052603260045260246000fd5b9060005260206000200180546107d69061329a565b80601f01602080910402602001604051908101604052809291908181526020018280546108029061329a565b801561084f5780601f106108245761010080835404028352916020019161084f565b820191906000526020600020905b81548152906001019060200180831161083257829003601f168201915b5050505050915050919050565b61087783838360405180602001604052806000815250610cca565b505050565b606060006108b061088c8461179f565b60405160200161089c9190612cd9565b60405160208183030381529060405261194c565b9050600d80549050816108c39190613346565b9050600d81815481106108ff577f4e487b7100000000000000000000000000000000000000000000000000000000600052603260045260246000fd5b9060005260206000200180546109149061329a565b80601f01602080910402602001604051908101604052809291908181526020018280546109409061329a565b801561098d5780601f106109625761010080835404028352916020019161098d565b820191906000526020600020905b81548152906001019060200180831161097057829003601f168201915b5050505050915050919050565b6000806002600084815260200190815260200160002060009054906101000a900473ffffffffffffffffffffffffffffffffffffffff169050600073ffffffffffffffffffffffffffffffffffffffff168173ffffffffffffffffffffffffffffffffffffffff161415610a43576040517f08c379a0000000000000000000000000000000000000000000000000000000008152600401610a3a90612f06565b60405180910390fd5b80915050919050565b60008073ffffffffffffffffffffffffffffffffffffffff168273ffffffffffffffffffffffffffffffffffffffff161415610abd576040517f08c379a0000000000000000000000000000000000000000000000000000000008152600401610ab490612ee6565b60405180910390fd5b600360008373ffffffffffffffffffffffffffffffffffffffff1673ffffffffffffffffffffffffffffffffffffffff168152602001908152602001600020549050919050565b606060018054610b139061329a565b80601f0160208091040260200160405190810160405280929190818152602001828054610b3f9061329a565b8015610b8c5780601f10610b6157610100808354040283529160200191610b8c565b820191906000526020600020905b815481529060010190602001808311610b6f57829003601f168201915b5050505050905090565b610ba8610ba1611399565b838361197f565b5050565b60606000610be0610bbc8461179f565b604051602001610bcc9190612c2e565b60405160208183030381529060405261194c565b9050600b8054905081610bf39190613346565b9050600b8181548110610c2f577f4e487b7100000000000000000000000000000000000000000000000000000000600052603260045260246000fd5b906000526020600020018054610c449061329a565b80601f0160208091040260200160405190810160405280929190818152602001828054610c709061329a565b8015610cbd5780601f10610c9257610100808354040283529160200191610cbd565b820191906000526020600020905b815481529060010190602001808311610ca057829003601f168201915b5050505050915050919050565b610cdb610cd5611399565b8361145a565b610d1a576040517f08c379a0000000000000000000000000000000000000000000000000000000008152600401610d1190612fe6565b60405180910390fd5b610d2684848484611aec565b50505050565b60606000610d60610d3c8461179f565b604051602001610d4c9190612c0c565b60405160208183030381529060405261194c565b9050600c8054905081610d739190613346565b9050600c8181548110610daf577f4e487b7100000000000000000000000000000000000000000000000000000000600052603260045260246000fd5b906000526020600020018054610dc49061329a565b80601f0160208091040260200160405190810160405280929190818152602001828054610df09061329a565b8015610e3d5780601f10610e1257610100808354040283529160200191610e3d565b820191906000526020600020905b815481529060010190602001808311610e2057829003601f168201915b5050505050915050919050565b6060610e558261132d565b610e94576040517f08c379a0000000000000000000000000000000000000000000000000000000008152600401610e8b90612f66565b60405180910390fd5b6000600660008481526020019081526020016000208054610eb49061329a565b80601f0160208091040260200160405190810160405280929190818152602001828054610ee09061329a565b8015610f2d5780601f10610f0257610100808354040283529160200191610f2d565b820191906000526020600020905b815481529060010190602001808311610f1057829003601f168201915b505050505090506000610f3e611b48565b9050600081511415610f54578192505050610f97565b600082511115610f89578082604051602001610f71929190612b6e565b60405160208183030381529060405292505050610f97565b610f9284611b5f565b925050505b919050565b6000600560008473ffffffffffffffffffffffffffffffffffffffff1673ffffffffffffffffffffffffffffffffffffffff16815260200190815260200160002060008373ffffffffffffffffffffffffffffffffffffffff1673ffffffffffffffffffffffffffffffffffffffff16815260200190815260200160002060009054906101000a900460ff16905092915050565b600061103c6007611c06565b905060006110498261073e565b9050600061105683610bac565b9050600061106384610d2c565b9050600083838360405160200161107c93929190612b92565b604051602081830303815290604052905060006110988661087c565b905060006008826009856040516020016110b59493929190612bc3565b604051602081830303815290604052905060006110fa846110d584611c14565b6040516020016110e6929190612c50565b604051602081830303815290604052611c14565b905060008160405160200161110f9190612cb7565b604051602081830303815290604052905061115e6040518060400160405280601581526020017f0a2d2d2d2d2d2d2d2d2d2d2d2d2d2d2d2d2d2d2d2d000000000000000000000081525061122a565b6111678161122a565b6111a56040518060400160405280601581526020017f2d2d2d2d2d2d2d2d2d2d2d2d2d2d2d2d2d2d2d2d0a000000000000000000000081525061122a565b6111af338a611d9e565b6111b98982611dbc565b6111c36007611e30565b6111e6604051806060016040528060258152602001613b02602591398a33611e46565b7fbf6594c4f8a37bc4290d3a46b168a43cf05064585ee7f3b356cf2a97447d4365338a604051611217929190612d62565b60405180910390a1505050505050505050565b6112c08160405160240161123e9190612da6565b6040516020818303038152906040527f41304fac000000000000000000000000000000000000000000000000000000007bffffffffffffffffffffffffffffffffffffffffffffffffffffffff19166020820180517bffffffffffffffffffffffffffffffffffffffffffffffffffffffff8381831617835250505050611ee5565b50565b60007f01ffc9a7000000000000000000000000000000000000000000000000000000007bffffffffffffffffffffffffffffffffffffffffffffffffffffffff1916827bffffffffffffffffffffffffffffffffffffffffffffffffffffffff1916149050919050565b60008073ffffffffffffffffffffffffffffffffffffffff166002600084815260200190815260200160002060009054906101000a900473ffffffffffffffffffffffffffffffffffffffff1673ffffffffffffffffffffffffffffffffffffffff1614159050919050565b600033905090565b816004600083815260200190815260200160002060006101000a81548173ffffffffffffffffffffffffffffffffffffffff021916908373ffffffffffffffffffffffffffffffffffffffff160217905550808273ffffffffffffffffffffffffffffffffffffffff166114148361099a565b73ffffffffffffffffffffffffffffffffffffffff167f8c5be1e5ebec7d5bd14f71427d1e84f3dd0314c0f7b2291e5b200ac8c7c3b92560405160405180910390a45050565b60006114658261132d565b6114a4576040517f08c379a000000000000000000000000000000000000000000000000000000000815260040161149b90612ea6565b60405180910390fd5b60006114af8361099a565b90508073ffffffffffffffffffffffffffffffffffffffff168473ffffffffffffffffffffffffffffffffffffffff16148061151e57508373ffffffffffffffffffffffffffffffffffffffff1661150684610541565b73ffffffffffffffffffffffffffffffffffffffff16145b8061152f575061152e8185610f9c565b5b91505092915050565b8273ffffffffffffffffffffffffffffffffffffffff166115588261099a565b73ffffffffffffffffffffffffffffffffffffffff16146115ae576040517f08c379a00000000000000000000000000000000000000000000000000000000081526004016115a590612e26565b60405180910390fd5b600073ffffffffffffffffffffffffffffffffffffffff168273ffffffffffffffffffffffffffffffffffffffff16141561161e576040517f08c379a000000000000000000000000000000000000000000000000000000000815260040161161590612e66565b60405180910390fd5b611629838383611f0e565b6116346000826113a1565b6001600360008573ffffffffffffffffffffffffffffffffffffffff1673ffffffffffffffffffffffffffffffffffffffff168152602001908152602001600020600082825461168491906131b0565b925050819055506001600360008473ffffffffffffffffffffffffffffffffffffffff1673ffffffffffffffffffffffffffffffffffffffff16815260200190815260200160002060008282546116db91906130cf565b92505081905550816002600083815260200190815260200160002060006101000a81548173ffffffffffffffffffffffffffffffffffffffff021916908373ffffffffffffffffffffffffffffffffffffffff160217905550808273ffffffffffffffffffffffffffffffffffffffff168473ffffffffffffffffffffffffffffffffffffffff167fddf252ad1be2c89b69c2b068fc378daa952ba7f163c4a11628f55a4df523b3ef60405160405180910390a461179a838383611f13565b505050565b606060008214156117e7576040518060400160405280600181526020017f30000000000000000000000000000000000000000000000000000000000000008152509050611947565b600082905060005b60008214611819578080611802906132fd565b915050600a826118129190613125565b91506117ef565b60008167ffffffffffffffff81111561185b577f4e487b7100000000000000000000000000000000000000000000000000000000600052604160045260246000fd5b6040519080825280601f01601f19166020018201604052801561188d5781602001600182028036833780820191505090505b5090505b60008514611940576001826118a691906131b0565b9150600a856118b59190613346565b60306118c191906130cf565b60f81b8183815181106118fd577f4e487b7100000000000000000000000000000000000000000000000000000000600052603260045260246000fd5b60200101907effffffffffffffffffffffffffffffffffffffffffffffffffffffffffffff1916908160001a905350600a856119399190613125565b9450611891565b8093505050505b919050565b60008160405160200161195f9190612b57565b6040516020818303038152906040528051906020012060001c9050919050565b8173ffffffffffffffffffffffffffffffffffffffff168373ffffffffffffffffffffffffffffffffffffffff1614156119ee576040517f08c379a00000000000000000000000000000000000000000000000000000000081526004016119e590612e86565b60405180910390fd5b80600560008573ffffffffffffffffffffffffffffffffffffffff1673ffffffffffffffffffffffffffffffffffffffff16815260200190815260200160002060008473ffffffffffffffffffffffffffffffffffffffff1673ffffffffffffffffffffffffffffffffffffffff16815260200190815260200160002060006101000a81548160ff0219169083151502179055508173ffffffffffffffffffffffffffffffffffffffff168373ffffffffffffffffffffffffffffffffffffffff167f17307eab39ab6107e8899845ad3d59bd9653f200f220920489ca2b5937696c3183604051611adf9190612d8b565b60405180910390a3505050565b611af7848484611538565b611b0384848484611f18565b611b42576040517f08c379a0000000000000000000000000000000000000000000000000000000008152600401611b3990612e06565b60405180910390fd5b50505050565b606060405180602001604052806000815250905090565b6060611b6a8261132d565b611ba9576040517f08c379a0000000000000000000000000000000000000000000000000000000008152600401611ba090612fa6565b60405180910390fd5b6000611bb3611b48565b90506000815111611bd35760405180602001604052806000815250611bfe565b80611bdd8461179f565b604051602001611bee929190612b6e565b6040516020818303038152906040525b915050919050565b600081600001549050919050565b6060600082511415611c3757604051806020016040528060008152509050611d99565b6000604051806060016040528060408152602001613b276040913990506000600360028551611c6691906130cf565b611c709190613125565b6004611c7c9190613156565b67ffffffffffffffff811115611cbb577f4e487b7100000000000000000000000000000000000000000000000000000000600052604160045260246000fd5b6040519080825280601f01601f191660200182016040528015611ced5781602001600182028036833780820191505090505b509050600182016020820185865187015b80821015611d59576003820191508151603f8160121c168501518453600184019350603f81600c1c168501518453600184019350603f8160061c168501518453600184019350603f8116850151845360018401935050611cfe565b5050600386510660018114611d755760028114611d8857611d90565b603d6001830353603d6002830353611d90565b603d60018303535b50505080925050505b919050565b611db88282604051806020016040528060008152506120af565b5050565b611dc58261132d565b611e04576040517f08c379a0000000000000000000000000000000000000000000000000000000008152600401611dfb90612f26565b60405180910390fd5b80600660008481526020019081526020016000209080519060200190611e2b929190612307565b505050565b6001816000016000828254019250508190555050565b611ee0838383604051602401611e5e93929190612dc8565b6040516020818303038152906040527fe3849f79000000000000000000000000000000000000000000000000000000007bffffffffffffffffffffffffffffffffffffffffffffffffffffffff19166020820180517bffffffffffffffffffffffffffffffffffffffffffffffffffffffff8381831617835250505050611ee5565b505050565b60008151905060006a636f6e736f6c652e6c6f679050602083016000808483855afa5050505050565b505050565b505050565b6000611f398473ffffffffffffffffffffffffffffffffffffffff1661210a565b156120a2578373ffffffffffffffffffffffffffffffffffffffff1663150b7a02611f62611399565b8786866040518563ffffffff1660e01b8152600401611f849493929190612d16565b602060405180830381600087803b158015611f9e57600080fd5b505af1925050508015611fcf57506040513d601f19601f82011682018060405250810190611fcc919061264b565b60015b612052573d8060008114611fff576040519150601f19603f3d011682016040523d82523d6000602084013e612004565b606091505b5060008151141561204a576040517f08c379a000000000000000000000000000000000000000000000000000000000815260040161204190612e06565b60405180910390fd5b805181602001fd5b63150b7a0260e01b7bffffffffffffffffffffffffffffffffffffffffffffffffffffffff1916817bffffffffffffffffffffffffffffffffffffffffffffffffffffffff1916149150506120a7565b600190505b949350505050565b6120b9838361212d565b6120c66000848484611f18565b612105576040517f08c379a00000000000000000000000000000000000000000000000000000000081526004016120fc90612e06565b60405180910390fd5b505050565b6000808273ffffffffffffffffffffffffffffffffffffffff163b119050919050565b600073ffffffffffffffffffffffffffffffffffffffff168273ffffffffffffffffffffffffffffffffffffffff16141561219d576040517f08c379a000000000000000000000000000000000000000000000000000000000815260040161219490612f46565b60405180910390fd5b6121a68161132d565b156121e6576040517f08c379a00000000000000000000000000000000000000000000000000000000081526004016121dd90612e46565b60405180910390fd5b6121f260008383611f0e565b6001600360008473ffffffffffffffffffffffffffffffffffffffff1673ffffffffffffffffffffffffffffffffffffffff168152602001908152602001600020600082825461224291906130cf565b92505081905550816002600083815260200190815260200160002060006101000a81548173ffffffffffffffffffffffffffffffffffffffff021916908373ffffffffffffffffffffffffffffffffffffffff160217905550808273ffffffffffffffffffffffffffffffffffffffff16600073ffffffffffffffffffffffffffffffffffffffff167fddf252ad1be2c89b69c2b068fc378daa952ba7f163c4a11628f55a4df523b3ef60405160405180910390a461230360008383611f13565b5050565b8280546123139061329a565b90600052602060002090601f016020900481019282612335576000855561237c565b82601f1061234e57805160ff191683800117855561237c565b8280016001018555821561237c579182015b8281111561237b578251825591602001919060010190612360565b5b509050612389919061238d565b5090565b5b808211156123a657600081600090555060010161238e565b5090565b60006123bd6123b884613046565b613021565b9050828152602081018484840111156123d557600080fd5b6123e0848285613258565b509392505050565b6000813590506123f781613aa5565b92915050565b60008135905061240c81613abc565b92915050565b60008135905061242181613ad3565b92915050565b60008151905061243681613ad3565b92915050565b600082601f83011261244d57600080fd5b813561245d8482602086016123aa565b91505092915050565b60008135905061247581613aea565b92915050565b60006020828403121561248d57600080fd5b600061249b848285016123e8565b91505092915050565b600080604083850312156124b757600080fd5b60006124c5858286016123e8565b92505060206124d6858286016123e8565b9150509250929050565b6000806000606084860312156124f557600080fd5b6000612503868287016123e8565b9350506020612514868287016123e8565b925050604061252586828701612466565b9150509250925092565b6000806000806080858703121561254557600080fd5b6000612553878288016123e8565b9450506020612564878288016123e8565b935050604061257587828801612466565b925050606085013567ffffffffffffffff81111561259257600080fd5b61259e8782880161243c565b91505092959194509250565b600080604083850312156125bd57600080fd5b60006125cb858286016123e8565b92505060206125dc858286016123fd565b9150509250929050565b600080604083850312156125f957600080fd5b6000612607858286016123e8565b925050602061261885828601612466565b9150509250929050565b60006020828403121561263457600080fd5b600061264284828501612412565b91505092915050565b60006020828403121561265d57600080fd5b600061266b84828501612427565b91505092915050565b60006020828403121561268657600080fd5b600061269484828501612466565b91505092915050565b6126a6816131e4565b82525050565b6126b5816131f6565b82525050565b60006126c68261308c565b6126d081856130a2565b93506126e0818560208601613267565b6126e981613433565b840191505092915050565b60006126ff82613097565b61270981856130b3565b9350612719818560208601613267565b61272281613433565b840191505092915050565b600061273882613097565b61274281856130c4565b9350612752818560208601613267565b80840191505092915050565b6000815461276b8161329a565b61277581866130c4565b9450600182166000811461279057600181146127a1576127d4565b60ff198316865281860193506127d4565b6127aa85613077565b60005b838110156127cc578154818901526001820191506020810190506127ad565b838801955050505b50505092915050565b60006127ea6032836130b3565b91506127f582613444565b604082019050919050565b600061280d6025836130b3565b915061281882613493565b604082019050919050565b6000612830601c836130b3565b915061283b826134e2565b602082019050919050565b6000612853600a836130c4565b915061285e8261350b565b600a82019050919050565b60006128766024836130b3565b915061288182613534565b604082019050919050565b60006128996019836130b3565b91506128a482613583565b602082019050919050565b60006128bc600b836130c4565b91506128c7826135ac565b600b82019050919050565b60006128df602c836130b3565b91506128ea826135d5565b604082019050919050565b6000612902600d836130c4565b915061290d82613624565b600d82019050919050565b60006129256038836130b3565b91506129308261364d565b604082019050919050565b6000612948602a836130b3565b91506129538261369c565b604082019050919050565b600061296b6029836130b3565b9150612976826136eb565b604082019050919050565b600061298e602e836130b3565b91506129998261373a565b604082019050919050565b60006129b16002836130c4565b91506129bc82613789565b600282019050919050565b60006129d46020836130b3565b91506129df826137b2565b602082019050919050565b60006129f76031836130b3565b9150612a02826137db565b604082019050919050565b6000612a1a602c836130b3565b9150612a258261382a565b604082019050919050565b6000612a3d602f836130b3565b9150612a4882613879565b604082019050919050565b6000612a60600a836130c4565b9150612a6b826138c8565b600a82019050919050565b6000612a836021836130b3565b9150612a8e826138f1565b604082019050919050565b6000612aa6600a836130c4565b9150612ab182613940565b600a82019050919050565b6000612ac9601d836130c4565b9150612ad482613969565b601d82019050919050565b6000612aec6031836130b3565b9150612af782613992565b604082019050919050565b6000612b0f6066836130c4565b9150612b1a826139e1565b606682019050919050565b6000612b326005836130c4565b9150612b3d82613a7c565b600582019050919050565b612b518161324e565b82525050565b6000612b63828461272d565b915081905092915050565b6000612b7a828561272d565b9150612b86828461272d565b91508190509392505050565b6000612b9e828661272d565b9150612baa828561272d565b9150612bb6828461272d565b9150819050949350505050565b6000612bcf828761275e565b9150612bdb828661272d565b9150612be7828561275e565b9150612bf3828461272d565b9150612bfe826128f5565b915081905095945050505050565b6000612c1782612846565b9150612c23828461272d565b915081905092915050565b6000612c39826128af565b9150612c45828461272d565b915081905092915050565b6000612c5b82612a53565b9150612c67828561272d565b9150612c7282612b02565b9150612c7e828461272d565b9150612c89826129a4565b91508190509392505050565b6000612ca082612a99565b9150612cac828461272d565b915081905092915050565b6000612cc282612abc565b9150612cce828461272d565b915081905092915050565b6000612ce482612b25565b9150612cf0828461272d565b915081905092915050565b6000602082019050612d10600083018461269d565b92915050565b6000608082019050612d2b600083018761269d565b612d38602083018661269d565b612d456040830185612b48565b8181036060830152612d5781846126bb565b905095945050505050565b6000604082019050612d77600083018561269d565b612d846020830184612b48565b9392505050565b6000602082019050612da060008301846126ac565b92915050565b60006020820190508181036000830152612dc081846126f4565b905092915050565b60006060820190508181036000830152612de281866126f4565b9050612df16020830185612b48565b612dfe604083018461269d565b949350505050565b60006020820190508181036000830152612e1f816127dd565b9050919050565b60006020820190508181036000830152612e3f81612800565b9050919050565b60006020820190508181036000830152612e5f81612823565b9050919050565b60006020820190508181036000830152612e7f81612869565b9050919050565b60006020820190508181036000830152612e9f8161288c565b9050919050565b60006020820190508181036000830152612ebf816128d2565b9050919050565b60006020820190508181036000830152612edf81612918565b9050919050565b60006020820190508181036000830152612eff8161293b565b9050919050565b60006020820190508181036000830152612f1f8161295e565b9050919050565b60006020820190508181036000830152612f3f81612981565b9050919050565b60006020820190508181036000830152612f5f816129c7565b9050919050565b60006020820190508181036000830152612f7f816129ea565b9050919050565b60006020820190508181036000830152612f9f81612a0d565b9050919050565b60006020820190508181036000830152612fbf81612a30565b9050919050565b60006020820190508181036000830152612fdf81612a76565b9050919050565b60006020820190508181036000830152612fff81612adf565b9050919050565b600060208201905061301b6000830184612b48565b92915050565b600061302b61303c565b905061303782826132cc565b919050565b6000604051905090565b600067ffffffffffffffff82111561306157613060613404565b5b61306a82613433565b9050602081019050919050565b60008190508160005260206000209050919050565b600081519050919050565b600081519050919050565b600082825260208201905092915050565b600082825260208201905092915050565b600081905092915050565b60006130da8261324e565b91506130e58361324e565b9250827fffffffffffffffffffffffffffffffffffffffffffffffffffffffffffffffff0382111561311a57613119613377565b5b828201905092915050565b60006131308261324e565b915061313b8361324e565b92508261314b5761314a6133a6565b5b828204905092915050565b60006131618261324e565b915061316c8361324e565b9250817fffffffffffffffffffffffffffffffffffffffffffffffffffffffffffffffff04831182151516156131a5576131a4613377565b5b828202905092915050565b60006131bb8261324e565b91506131c68361324e565b9250828210156131d9576131d8613377565b5b828203905092915050565b60006131ef8261322e565b9050919050565b60008115159050919050565b60007fffffffff0000000000000000000000000000000000000000000000000000000082169050919050565b600073ffffffffffffffffffffffffffffffffffffffff82169050919050565b6000819050919050565b82818337600083830152505050565b60005b8381101561328557808201518184015260208101905061326a565b83811115613294576000848401525b50505050565b600060028204905060018216806132b257607f821691505b602082108114156132c6576132c56133d5565b5b50919050565b6132d582613433565b810181811067ffffffffffffffff821117156132f4576132f3613404565b5b80604052505050565b60006133088261324e565b91507fffffffffffffffffffffffffffffffffffffffffffffffffffffffffffffffff82141561333b5761333a613377565b5b600182019050919050565b60006133518261324e565b915061335c8361324e565b92508261336c5761336b6133a6565b5b828206905092915050565b7f4e487b7100000000000000000000000000000000000000000000000000000000600052601160045260246000fd5b7f4e487b7100000000000000000000000000000000000000000000000000000000600052601260045260246000fd5b7f4e487b7100000000000000000000000000000000000000000000000000000000600052602260045260246000fd5b7f4e487b7100000000000000000000000000000000000000000000000000000000600052604160045260246000fd5b6000601f19601f8301169050919050565b7f4552433732313a207472616e7366657220746f206e6f6e20455243373231526560008201527f63656976657220696d706c656d656e7465720000000000000000000000000000602082015250565b7f4552433732313a207472616e736665722066726f6d20696e636f72726563742060008201527f6f776e6572000000000000000000000000000000000000000000000000000000602082015250565b7f4552433732313a20746f6b656e20616c7265616479206d696e74656400000000600082015250565b7f54484952445f574f524400000000000000000000000000000000000000000000600082015250565b7f4552433732313a207472616e7366657220746f20746865207a65726f2061646460008201527f7265737300000000000000000000000000000000000000000000000000000000602082015250565b7f4552433732313a20617070726f766520746f2063616c6c657200000000000000600082015250565b7f5345434f4e445f574f5244000000000000000000000000000000000000000000600082015250565b7f4552433732313a206f70657261746f7220717565727920666f72206e6f6e657860008201527f697374656e7420746f6b656e0000000000000000000000000000000000000000602082015250565b7f3c2f746578743e3c2f7376673e00000000000000000000000000000000000000600082015250565b7f4552433732313a20617070726f76652063616c6c6572206973206e6f74206f7760008201527f6e6572206e6f7220617070726f76656420666f7220616c6c0000000000000000602082015250565b7f4552433732313a2062616c616e636520717565727920666f7220746865207a6560008201527f726f206164647265737300000000000000000000000000000000000000000000602082015250565b7f4552433732313a206f776e657220717565727920666f72206e6f6e657869737460008201527f656e7420746f6b656e0000000000000000000000000000000000000000000000602082015250565b7f45524337323155524953746f726167653a2055524920736574206f66206e6f6e60008201527f6578697374656e7420746f6b656e000000000000000000000000000000000000602082015250565b7f227d000000000000000000000000000000000000000000000000000000000000600082015250565b7f4552433732313a206d696e7420746f20746865207a65726f2061646472657373600082015250565b7f45524337323155524953746f726167653a2055524920717565727920666f722060008201527f6e6f6e6578697374656e7420746f6b656e000000000000000000000000000000602082015250565b7f4552433732313a20617070726f76656420717565727920666f72206e6f6e657860008201527f697374656e7420746f6b656e0000000000000000000000000000000000000000602082015250565b7f4552433732314d657461646174613a2055524920717565727920666f72206e6f60008201527f6e6578697374656e7420746f6b656e0000000000000000000000000000000000602082015250565b7f7b226e616d65223a202200000000000000000000000000000000000000000000600082015250565b7f4552433732313a20617070726f76616c20746f2063757272656e74206f776e6560008201527f7200000000000000000000000000000000000000000000000000000000000000602082015250565b7f46495253545f574f524400000000000000000000000000000000000000000000600082015250565b7f646174613a6170706c69636174696f6e2f6a736f6e3b6261736536342c000000600082015250565b7f4552433732313a207472616e736665722063616c6c6572206973206e6f74206f60008201527f776e6572206e6f7220617070726f766564000000000000000000000000000000602082015250565b7f222c20226465736372697074696f6e223a2022596f757220636f6c6c6563746960008201527f626c6520746f20656e7465722074686520776f726c64206f6620776562332e2260208201527f2c2022696d616765223a2022646174613a696d6167652f7376672b786d6c3b6260408201527f61736536342c0000000000000000000000000000000000000000000000000000606082015250565b7f434f4c4f52000000000000000000000000000000000000000000000000000000600082015250565b613aae816131e4565b8114613ab957600080fd5b50565b613ac5816131f6565b8114613ad057600080fd5b50565b613adc81613202565b8114613ae757600080fd5b50565b613af38161324e565b8114613afe57600080fd5b5056fe416e204e465420772f20494420257320686173206265656e206d696e74656420746f2025734142434445464748494a4b4c4d4e4f505152535455565758595a6162636465666768696a6b6c6d6e6f707172737475767778797a303132333435363738392b2fa26469706673582212208fc2d5447de0d4102c32102c55b54dac948f312e3a2d8e6c245728e00f1db65664736f6c634300080100333c73766720786d6c6e733d27687474703a2f2f7777772e77332e6f72672f323030302f73766727207072657365727665417370656374526174696f3d27784d696e594d696e206d656574272076696577426f783d273020302033353020333530273e3c7374796c653e2e62617365207b2066696c6c3a2077686974653b20666f6e742d66616d696c793a2073657269663b20666f6e742d73697a653a20323470783b207d3c2f7374796c653e3c726563742077696474683d273130302527206865696768743d2731303025272066696c6c3d27272f3e3c7465787420783d273530252720793d273530252720636c6173733d27626173652720646f6d696e616e742d626173656c696e653d276d6964646c652720746578742d616e63686f723d276d6964646c65273e",
  "linkReferences": {},
  "deployedLinkReferences": {}
}